:020000040800F2
:1000000000200020F51D00082D1B0008331B0008F0
:1000100000000000000000000000000000000000E0
:10002000000000000000000000000000391B000874
:100030000000000000000000431B00084D1B0008EA
:10004000451E000800000000451E0008451E00086F
:10005000451E0008451E0008451E0008451E0008F4
:1000600000000000451E0008451E0008451E00084F
:10007000451E0008451E0008451E0008000000003F
:10008000451E0008451E000800000000451E00082F
:10009000451E0008451E0008451E0008451E0008B4
:1000A000451E0008451E0008451E00085D1B00088F
:1000B000451E0008000000000000000000000000D5
:1000C00010B5064C2378002B07D1054B002B02D02E
:1000D000044800E000BF0123237010BD8C00002005
:1000E0000000000000670008044B10B5002B03D08F
:1000F0000349044800E000BF10BDC04600000000F6
:1001000090000020006700080023C25C0133002A31
:10011000FBD1581E7047000003B4714649084000E7
:100120004900095E49008E4403BC70470022430821
:100130008B4274D303098B425FD3030A8B4244D3AF
:10014000030B8B4228D3030C8B420DD3FF220902F1
:1001500012BA030C8B4202D31212090265D0030BB0
:100160008B4219D300E0090AC30B8B4201D3CB03A6
:10017000C01A5241830B8B4201D38B03C01A5241E8
:10018000430B8B4201D34B03C01A5241030B8B42EA
:1001900001D30B03C01A5241C30A8B4201D3CB02D5
:1001A000C01A5241830A8B4201D38B02C01A5241BA
:1001B000430A8B4201D34B02C01A5241030A8B42BD
:1001C00001D30B02C01A5241CDD2C3098B4201D3D5
:1001D000CB01C01A524183098B4201D38B01C01A53
:1001E000524143098B4201D34B01C01A52410309CA
:1001F0008B4201D30B01C01A5241C3088B4201D379
:10020000CB00C01A524183088B4201D38B00C01A25
:10021000524143088B4201D34B00C01A5241411A4C
:1002200000D20146524110467047FFE701B5002059
:1002300000F006F802BDC0460029F7D076E7704707
:100240007047C0469E2110B5C905041C00F0D2FCC1
:10025000002803D1201C00F0FBFB10BD9E21201CB8
:10026000C90500F02DFA00F0F3FB80231B069C4625
:100270006044F2E7F0B54F464646D6464502C0B563
:1002800047000C1C6D0A3F0EC60F002F66D0FF2FD3
:100290006CD00023EA00802599469A46ED04154368
:1002A0007F3F60026100430A9846090EE40F00296F
:1002B00048D0FF2910D08022D800D20402439046B3
:1002C00000207F394A4633007F1A02436C4992006E
:1002D0008A586340DBB29746002B6DD10220FF3F66
:1002E00033E0002398462600454682465346022BBB
:1002F00000D17FE0032B00D194E0012B17D0380010
:100300007F3000285FDD6B0704D00F232B40042BC8
:1003100000D004352B0103D538005A4B80301D40E6
:10032000FE2867DCAD016D0AC0B202E01E000020AD
:100330000025C0052843F6073043E0BCBA46B14665
:10034000A846F0BD002B2BD101204A4633004E4970
:10035000024392008A586340DBB29746002D13D1C6
:1003600004239946033B00279A469AE7002D05D1BE
:1003700008239946063BFF279A4692E70C239946A5
:10038000093BFF279A468CE7280000F03DFC7627C2
:10039000431F9D4000237F4299469A463F1A80E7BB
:1003A000180000F031FC4246431F76219A40494232
:1003B000091A9046002085E7FF21032082E71E00EE
:1003C000FF200025B5E701231B1A1B2BAFDC9E374E
:1003D0002900BD40D9406A1E95410D436B0704D0EA
:1003E0000F232B40042B00D004356B0144D5012092
:1003F00000259EE7FF2000259BE780250026FF20A3
:10040000ED0396E7002398468020C003054209D0FB
:100410004346034206D1454605436D022600FF20B0
:100420006D0A86E78020C00305436D02FF206D0A38
:100430007FE741466A014801824219D21B2100250B
:10044000013F012614006D005200002C01DB904298
:1004500001D8121A354301390029F3D1501E8241C7
:1004600038007F301E001543002800DD4BE7AAE767
:100470001A210125121AE4E7AD0100206D0A58E7A0
:10048000F0670008FFFFFFF730680008F8B557462F
:100490004E464546DE464402E0B545000F1C640A60
:1004A0002D0EC60F002D47D0FF2D4DD000238020EC
:1004B0009A469B46E400C00404437F3D7802430A09
:1004C00099467A00FB0F9846120E4B4644D0FF2AFD
:1004D00011D0D8008023DB040343994600207F3AE3
:1004E000AD18474653467740691C0F2B3FD8724AD8
:1004F0009B00D3589F46FF35002B00D079E0524631
:1005000002231A4392460220EBE747464C468346B5
:100510005B46022B28D0032B00D1C6E0012B4FD124
:1005200000200024C005FF0720433843F0BCBB4631
:10053000B246A946A046F8BD002C71D104239A46C4
:10054000033B00259B46B9E7002C63D108239A465C
:10055000063BFF259B46B1E7002B50D152460133A5
:100560001A4392460120BCE7FF200024DAE7484600
:10057000260C2404220C0404240C4B4620001B0CE3
:10058000504374435A435E431219030C9B189C4218
:1005900003D9802252029446664400041A04000CD7
:1005A00012189401601E84411B0C920E9B19144377
:1005B0009B011C431B0172D50120630804401C43AE
:1005C00008007F3000283CDD630704D00F23234060
:1005D000042B00D00434230103D580310800374BAD
:1005E0001C40FE28C0DCA401640AC0B29AE73700B0
:1005F0008EE7524603231A439246032071E748468A
:1006000000F002FB4A46431F9A402D1A91460020F3
:10061000763D66E70C239A46093BFF259B464DE74E
:10062000200000F0F1FA7625431F9C4000236D4224
:100630009A469B462D1A41E780240027FF20E403B9
:1006400070E701231B1A1B2B00DD69E79E31200098
:100650008C40D840631E9C410443630704D00F23A1
:100660002340042B00D0043463011AD50120002458
:1006700058E78020C003044209D04B46034206D10C
:100680004C46044364024746FF20640A4AE7802040
:10069000C003044364023700FF20640A42E72900D4
:1006A0008EE7A4010020640A3CE78020C0030443D5
:1006B0006402FF20640A35E770680008FFFFFFF757
:1006C000F0B54646D6464F4643025B0ADA009446EA
:1006D0004A02C0B54400560A051CB046240E4E001E
:1006E00092091F0020009246ED0F360EC90FFF2E13
:1006F00000D17FE0012251408D4251D0A21B914692
:10070000002A00DC7EE0002E00D199E0FF2C00D111
:100710008CE080235246DB041A4392464A4601236A
:100720001B2A08DC53462021D340891A52468A40AE
:10073000511E8A4113436246D31A5A0100D4F3E092
:100740009B019E09300000F05FFA05388640844224
:1007500000DDF7E03200041B20200134E240041BDE
:10076000A64033005E1EB341002413435A0704D051
:100770000F221A40042A00D004335A0100D4D6E0D4
:10078000621CFE2C00D1DAE09B015F0AD0B2C005EA
:100790003843ED072843E0BCBA46B146A846F0BD51
:1007A000A21B9146002A63DD002E00D199E0FF2CA8
:1007B0003CD080235246DB041A4392464A4601232A
:1007C0001B2A08DC53462021D340891A52468A400E
:1007D000511E8A41134363445A0100D4A4E00134FA
:1007E000FF2C00D1ABE0012297491A405B080B4077
:1007F0001343BBE7002A32D08D4235D0FF2252424C
:100800009146A1444A46002A51D0301B002C00D00A
:100810009CE06346002B00D1DFE00138002800D1C6
:10082000F7E0FF2E00D099E00D004346002B00D1E9
:1008300085E08027FF031F437F02FF207F0AA6E792
:100840005246002A74D0012252429046C1444A4680
:10085000002A00D1C8E0FF2C00D05FE7E6E70122C4
:100860005140A94200D049E7FF2252429146A1449B
:100870004A46002A43D0311B002C00D18CE0FF2EC9
:1008800000D192E080236246DB041A4394460123A0
:100890001B2909DC202063466246CB40411A8A406E
:1008A0001100481E81410B433400534494E7FE225B
:1008B000661C324264D1002C00D082E06346002BDB
:1008C00000D1ABE05346002B00D160E763465246AF
:1008D0009B1A5A0100D4AAE0634652460D00D31A6F
:1008E00044E75246002A23D0012252429046C14496
:1008F0004A46002A75D0FF2C00D05FE796E7FE2617
:100900000134264253D1002872D16346002B00D116
:1009100093E05346002B00D139E7634400245A0189
:1009200002D54A4A013413405A0700D020E7DB08B9
:10093000FF2C00D17AE75B025F0AE0B227E7FF20D5
:10094000002724E7414B241A33400FE7FF2E00D144
:100950006AE780236246DB041A43944601231B287E
:1009600009DC202463466246C340201A82401000FE
:10097000441EA041034352460D003400D31ADCE666
:10098000634652469E1A730117D4002E00D0D9E652
:10099000002500200027FAE66346002B44D00139E9
:1009A00000294CD0FF2E00D071E743463EE7FF2CD4
:1009B000C5D0524662445308B6E763460D00D61AC6
:1009C000C0E66246002A16D15346002B00D02BE722
:1009D00080270025FF20FF03D9E60D0043463400A1
:1009E000A6E753466344F7E6634652469B1AA4E6DD
:1009F0006246002AD9D05246002A00D116E780224A
:100A0000D203134200D111E74046104200D00DE757
:100A10000AE752460D003400D31A8EE65346002BE7
:100A200008D00D004746B2E64346340080E7002B6D
:100A300000D079E700250027A9E64746A7E65346F8
:100A400034006344C8E6C046FFFFFF7DFFFFFFFBA5
:100A500041024200C30F490A0020120E7E2A03D928
:100A60009D2A02D9094A9818704780200004014342
:100A7000952A07DC9620821AD1404842002BF3D1F8
:100A80000800F1E7963A9140F7E7C046FFFFFF7F85
:100A900070B5002813D0C317C5185D40C40F2800D7
:100AA00000F0B2F89E2301001B1A962B0FDC0828D9
:100AB00001DD08398D406D026D0AD8B202E00024D4
:100AC00000200025C0052843E407204370BD992B72
:100AD0000BDD05222E00121AD64002001B32954073
:100AE0002800451EA84135000543052901DD4A1FA0
:100AF00095402A00084E3240680709D00F20284050
:100B0000042805D00432500102D59F2332405B1ADD
:100B10009201550AD8B2D5E7FFFFFFFB70B5051E5D
:100B20000ED000F071F89E2304001B1A962B0CDCEB
:100B3000082801DD083CA5406D026D0AD8B201E02D
:100B400000200025C005284370BD992B09DD020057
:100B500029001B3291404A1E91410522121AD540AC
:100B60000D43052C01DD621F95402900084E3140E0
:100B70006A0709D00F202840042805D004314A0113
:100B800002D59F2331401B1B89014D0AD8B2D9E7FA
:100B9000FFFFFFFB8446081C6146FFE71FB500F01E
:100BA000C5F8002801D40021C8421FBD10B500F0CF
:100BB00049F84042013010BD10B500F0B7F80028E8
:100BC00001DB002010BD012010BDC04610B500F0B3
:100BD000ADF8002801DD002010BD012010BDC04689
:100BE00010B500F057F8002801DC002010BD0120EE
:100BF00010BDC04610B500F04DF8002801DA002005
:100C000010BD012010BDC0461C2101231B049842C9
:100C100001D3000C10391B0A984201D3000A08398D
:100C20001B09984201D30009043902A2105C401844
:100C30007047C046040302020101010100000000E8
:100C40000000000070B542004E024C0045026D0AE3
:100C5000120EC30F760A240EC90FFF2A0FD0FF2CE5
:100C600011D00120A24200D070BDB542FCD18B4210
:100C70000DD0002AF8D12800451EA841F4E7012034
:100C8000002DF1D1EBE70120002EEDD1E9E70020A6
:100C9000EAE7C046F0B5420046024D024C00C30FE1
:100CA000760A120E6D0A240EC80FFF2A1FD0FF2CE1
:100CB00010D0002A1FD171427141002C01D1002DAA
:100CC0001ED000290ED183421ED00221581E08409A
:100CD0000138F0BD002D26D1002AF4D171427141B6
:100CE0000029F0D00028F4D101204042F1E7002E85
:100CF00019D1FF2CEED0002CE5D1002DE3D1E4E793
:100D00000020002EE5D0E0E7A24205DCEADBAE429F
:100D100002D8E7D30020DCE74142414148420221AA
:100D200008400138D5E702204042D2E7F0B5420042
:100D300046024D024C00C30F760A120E6D0A240EB5
:100D4000C80FFF2A0DD0FF2C0FD0002A23D17142EB
:100D50007141002C0FD1002D0DD10020002E14D098
:100D60000DE0002E10D1FF2C15D1002D0CD1002A42
:100D700003D171427141002908D1834210D0022170
:100D8000581E0840013800E00220F0BD0028FCD1C8
:100D900001204042F9E7002CEFD1002DEDD1EEE724
:100DA000A24205DCF2DBAE4202D8EFD30020ECE732
:100DB000414241414842022108400138E5E7C0462E
:100DC00080B582B000AF9023DB05012240211800DE
:100DD00001F0ABFB012000F05BFF9023DB0500225C
:100DE0008021180001F0A1FB00233B60C046902346
:100DF000DB054021180001F07BFB031EF7D1FB1D32
:100E000000221A7027E09023DB05012280211800C0
:100E100001F08BFB3B685B003B60012000F038FF7A
:100E20009023DB0500228021180001F07EFB902337
:100E3000DB054021180001F05BFB0300012B02D110
:100E40003B6801333B60012000F022FFFB1D1A7854
:100E5000FB1D01321A70FB1D1B78172BD3D9902371
:100E6000DB0501228021180001F05FFB3B68802236
:100E7000120453403B60012000F00AFF9023DB0581
:100E800000228021180001F050FB3B681800BD468D
:100E900002B080BD80B500AFFFF792FF0200024BA9
:100EA0001A60C046BD4680BDA800002080B500AFD6
:100EB000FFF786FF0200154B1A60144B1A68144B9B
:100EC0001B689A421ED9114B1B681A00114B1A60FD
:100ED000104B1B681A000E4B1B68D31A1A000D4BDF
:100EE0001A600C4B1B681800FFF7D2FD031C0A495F
:100EF000181CFFF7BFF9031C181CFFF7A9FD02001F
:100F0000044B1A60C046BD4680BDC046CC000020E0
:100F1000A8000020B00000200000554380B500AFBD
:100F2000FFF7B8FFFA239B00180000F0F1FFFFF76E
:100F3000B1FFC046BD4680BD80B500AF064B1A6804
:100F4000064B1A60044B1B681900112003F0B0FF18
:100F5000C046BD4680BDC046B0000020AC000020A9
:100F600080B582B000AF78607B68DA179B18534079
:100F70001800BD4602B080BD80B500AF104B1A68A6
:100F8000104B1B68D31A1800FFF7EAFF0300092B68
:100F900005DDFFF7D1FF0C4B00221A600DE00A4B74
:100FA0001B685A1C084B1A60074B1B68C72B04DDD3
:100FB000FFF7C2FF044B00221A60C046BD4680BD49
:100FC000B0000020AC000020B400002090B58BB031
:100FD00000AF14243B19180014231A00002104F058
:100FE00061FF404B5A693F4B802109030A435A6114
:100FF0003C4B5A6980231B0313403B613B69394BCF
:101000005A69384B8021C9030A435A61354B5A69E2
:101010008023DB031340FB60FB68324B5A69314B82
:10102000802189020A435A612E4B5A6980239B0210
:101030001340BB60BB682B4B5A692A4B8021C90205
:101040000A435A61274B5A698023DB0213407B60B5
:101050007B689023DB0500228021180001F065FAEF
:101060008023DB0120480122190001F05EFA3B19C0
:1010700040221A603B1900225A603B1900229A60F4
:101080003A199023DB051100180001F0C1F83B1953
:1010900080221A603B1901225A603B1900229A6093
:1010A0003B190122DA603A199023DB051100180080
:1010B00001F0AEF821007B188022D2011A607B1863
:1010C00001225A607B1800229A607B180022DA60A5
:1010D0007B18054A1900100001F09AF8C046BD4679
:1010E0000BB090BD001002400004004880B500AF76
:1010F0001E4B1F4A1A601D4B1E4A5A601B4B002292
:101100009A601A4B0122DA60184B00221A61174BC1
:1011100000225A61154B00229A61144B0022DA61B9
:10112000124B00221A62114B180001F01BFA031E29
:1011300001D000F0AFF90D4B0021180002F02EF89D
:10114000031E01D000F0A6F9084B0021180002F0A0
:1011500071F8031E01D000F09DF9074B1A68064B89
:1011600006490A431A60C046BD4680BDD000002033
:101170000054004009020020000001400001AAAA1A
:1011800090B58BB000AF786014243B19180014237D
:101190001A00002104F086FE7B681B681C4A9342FB
:1011A00031D11C4B5A691B4B8021C9020A435A6139
:1011B000184B5A698023DB0213403B613B692100D5
:1011C0007B18C0221A607B1812225A607B180122F9
:1011D0009A607B180322DA607B1801221A617B185F
:1011E0000D4A1900100001F013F80A4BDA69094B97
:1011F000802189030A43DA61064BDA6980239B0365
:101200001340FB60FB68C046BD460BB090BDC046B6
:1012100000540040001002400004004890B593B014
:1012200000AF4023FB1800221A6000229A8000239E
:10123000FB630023BB633B1D00221A6004332E2294
:101240000021180004F02EFE00F0FEFD00F0BEF8B4
:10125000FFF7BCFEFFF74AFF00F046FD00F0D8FCA8
:1012600004F020F8514B1B681A68504B1B68202172
:101270000A431A6000F074F900F0AFF900F07AF94F
:10128000FFF74CFE00F022FB00F02EFB031E06D100
:10129000474A0E230021002000F080FA05E0454A6D
:1012A00010230021002000F079FA00F063F90121F9
:1012B000132003F09BFD03F027FF40243B19180087
:1012C00000F01EFB031E36D13823FA183C23F91810
:1012D0003B19180000F08AFB031E1AD1FB6B181C87
:1012E000FEF7B0FF0400BB6B181CFEF7ABFF03005A
:1012F0003149381D220004F0DDFD3B1D1800FEF7CA
:1013000003FF0300DBB23A1D0021002000F046FA83
:1013100022E02A4A3B1D1100180004F0CBFD3B1DC2
:101320001800FEF7F1FE0300DBB23A1D0021002099
:1013300000F034FA10E0224A3B1D1100180004F0BE
:10134000B9FD3B1D1800FEF7DFFE0300DBB23A1DBE
:101350000021002000F022FA0A2000F0D9FDFB6BEA
:10136000BA6B111C181C00F061FA3C2000F0D0FD93
:10137000FFF79CFD0A2000F0CBFD124B1A681249C2
:101380003B1D180004F096FD3B1D1800FEF7BCFE47
:101390000300DBB23A1D0021032000F0FFF93220E8
:1013A00000F0B6FDFFF7E8FD85E7C04664010020C8
:1013B00018670008286700083867000858670008A1
:1013C00068670008B00000208467000890B595B0F9
:1013D00000AF20243B19180030231A00002104F02C
:1013E00061FD1023FB18180010231A00002104F0DF
:1013F00059FD3B00180010231A00002104F052FD93
:1014000021007B1802221A607B180122DA607B1807
:1014100010221A617B1802221A627B1800225A627B
:101420007B18A02292039A627B180022DA627B1852
:10143000180001F04BFF031E01D000F02BF8102123
:101440007B1807221A607B1802225A607B18002240
:101450009A607B180022DA607B180121180002F0E4
:101460004FFA031E01D000F015F83B0021221A604C
:101470003B0001229A603B001022DA603B0018001A
:1014800002F090FB031E01D000F004F8C046BD46F8
:1014900015B090BD80B500AF72B6C046FEE7000043
:1014A00080B586B004AFFB1D00221A70FB1D002220
:1014B0001A7014E0FB1D1A780D4BD3180D488022CA
:1014C000520002920122019200930123002278210E
:1014D00001F0EEFAFB1D1A78FB1D01321A70FB1D9C
:1014E0001B781A2BE6D9C046C046BD4602B080BD67
:1014F00000000020D000002080B586B004AF0200BC
:10150000FB1D1A70084880235B000293012301939E
:10151000FB1D009301230022782101F0C9FAC04687
:10152000BD4602B080BDC046D000002080B586B068
:1015300004AF0200FB1D1A70084880235B00029371
:1015400001230193FB1D009301234022782101F028
:10155000AFFAC046BD4602B080BDC046D0000020F4
:1015600080B500AFC82000F0D3FCFFF799FFC0465C
:10157000BD4680BD80B582B000AFFB1D00221A7051
:1015800022E0FB1D1B78503BDBB21800FFF7B4FFD5
:101590000020FFF7B1FF1020FFF7AEFFBB1D0022B8
:1015A0001A7007E00020FFF7C1FFBB1D1A78BB1DB2
:1015B00001321A70BB1D1B785BB2002BF2DAFB1DE7
:1015C0001A78FB1D01321A70FB1D1B78072BD8D926
:1015D000C046C046BD4602B080BD80B500AF8D207C
:1015E000FFF78AFF1420FFF787FFAF20FFF784FF84
:1015F000C046BD4680BD80B582B000AF0200FB1D75
:101600001A70BB1D0A1C1A70BB1D1B78503BDBB245
:101610001800FFF771FFFB1D1B781B09DBB21022BE
:101620001343DBB21800FFF767FFFB1D1B780F2287
:101630001340DBB21800FFF75FFFC046BD4602B0A3
:1016400080BD0000B0B584B000AF05000C001000F4
:101650001900FB1D2A1C1A70BB1D221C1A707B1D51
:10166000021C1A703B1D0A1C1A700E217B180022E6
:101670001A700F23FB1800221A707B187A1D12783B
:10168000203A1A70FB1D1B785BB2002B07DAFB1D9A
:1016900000221A70BB1DBA1D127802321A703B1D4F
:1016A0001B78102B4AD1BB1D1A78FB1D1B7811002B
:1016B0001800FFF7A0FF0F23FB1800221A7011E09B
:1016C0000E23FB181B781A010F243B191B78D31823
:1016D000304AD35C1800FFF729FF3B191A783B19F1
:1016E00001321A700F243B191B78072BE8D9BB1D58
:1016F0001B780133DAB2FB1D1B7811001800FFF7CD
:101700007AFF3B1900221A7012E00E23FB181B7897
:101710001A010F243B191B78D31808331D4AD35CD8
:101720001800FFF703FF3B191A783B1901321A70B2
:101730000F23FB181B78072BE7D926E0BB1D1A786F
:10174000FB1D1B7811001800FFF755FF0F23FB1836
:1017500000221A7014E00E23FB181A780F243B198C
:1017600019780D4813005B009B185B00C3185B5C85
:101770001800FFF7DBFE3B191A783B1901321A708B
:101780000F23FB181B78052BE5D9C046BD4604B0D6
:10179000B0BDC046D86A0008B068000890B585B0F2
:1017A00000AF040008003A601900FB1D221C1A70EB
:1017B000BB1D021C1A707B1D0A1C1A700F23FB181C
:1017C00000221A7025E00F23FB181B783A68D31803
:1017D0001A787B1D1C78BB1D1978FB1D1878230017
:1017E000FFF730FFFB1DFA1D127808321A70FB1D3F
:1017F0001B78782B07D9FB1D00221A70BB1DBA1D60
:10180000127802321A700F217B181A787B18013275
:101810001A700F23FB181B783A68D3181B78002B1B
:10182000D1D1C046C046BD4605B090BD80B582B09E
:1018300000AF78603960114B1B78C72B14D9104961
:101840007868FEF723FE031C181CFEF7FBFC030060
:101850001900652003F02CFB3868FEF7F3FC030049
:101860001900662003F024FB044B1B780133DAB225
:10187000024B1A70C046BD4602B080BDB8000020C1
:101880000000204180B586B002AF0200BB1D1A8067
:10189000BB1D1B881B0A9BB2DAB20C217B181A7085
:1018A000BB1D1B88DAB27B185A707A180548064BA4
:1018B00000930223882100F0EBFE03001800BD46D0
:1018C00004B080BDD0000020FFFF000080B500AF55
:1018D000044B1800FFF7D6FF142000F019FBC04698
:1018E000BD4680BDA230000080B500AF034B18009C
:1018F000FFF7C8FF03001800BD4680BD202200008E
:1019000080B584B002AF7860E0231B021800FFF7B7
:10191000B9FF7A680548064B00930623892100F039
:10192000BFFF03001800BD4602B080BDD0000020FC
:10193000FFFF000080B584B000AF78600A00FB1C98
:101940001A700E23FB1800221A700D217B1800223A
:101950001A700F23FB18FA1C12781A707B180022D9
:101960001A7037E00D23FB181B787A68D3181978A2
:101970000F22BB18BA1812784A401A700E23FB18AF
:1019800000221A701BE00F217B181B785BB2002B22
:1019900009DA7B181B785B005BB2312253405AB2E4
:1019A0007B181A7005E00F23FA18FB181B78DB1858
:1019B00013700E217B181A787B1801321A700E23CF
:1019C000FB181B78072BDED90D217B181A787B18A2
:1019D00001321A700D23FB181B78012BC2D90F237B
:1019E000FB181B781800BD4604B080BD80B586B0DA
:1019F00000AFF860B9607A601623FB1800221A80E5
:101A00001423FB1800221A80FB68FF211800FFF73F
:101A100091FF03001A00FB6802331B789A420CD135
:101A2000FB680333FF211800FFF784FF03001A004F
:101A3000FB6805331B789A4201D0012346E0FB681E
:101A40001B781B021AB2FB6801331B781BB21343CD
:101A50001AB216217B181A807B181B881800FFF712
:101A60005DF8031C1B49181CFEF704FC031C1A49F3
:101A7000181CFEF70BFD031C1849181CFEF720FE6E
:101A8000031C1A1CBB681A60FB6803331B781B021B
:101A90001AB2FB6804331B781BB213431AB2142129
:101AA0007B181A807B181B881800FFF737F8031C77
:101AB0000849181CFEF7DEFB031C0949181CFEF739
:101AC000E5FC031C1A1C7B681A6000231800BD4645
:101AD00006B080BD00FF7F4700002F430000344266
:101AE0000000C84280B582B000AF0F4B9A690E4B20
:101AF00001210A439A610C4B9B69012213407B60D0
:101B00007B68094BDA69084B802149050A43DA6191
:101B1000054BDA6980235B0513403B603B68C04698
:101B2000BD4602B080BDC0460010024080B500AF87
:101B3000FEE780B500AFFEE780B500AFC046BD460A
:101B400080BD80B500AFC046BD4680BD80B500AF4A
:101B500000F0C2F9C046BD4680BD000080B582B02D
:101B600000AF0B4B180002F019FB0A4BDB69202277
:101B7000134009D0074B9B8C9AB2FB1D1A70FB1DBA
:101B80001B78180003F088FAC046BD4602B080BD3D
:101B9000640100200038014080B586B000AF786055
:101BA000144A154BD31A7B617B693B61134B1B684D
:101BB000002B02D1114B124A1A60104B1A687B6835
:101BC000D3183A699A4207D204F042F903000C2272
:101BD0001A6001235B4209E0084B1B68FB60074B5E
:101BE0001A687B68D218054B1A60FB681800BD465E
:101BF00006B080BD0020002000040000BC000020D2
:101C00007802002080B500AFC046BD4680BD000010
:101C100080B500AF0C4B0D4A1A600B4B2F225A6057
:101C2000094B00229A60084B094ADA60064B0022F1
:101C30009A61054B180002F083F8031E01D0FFF7EC
:101C400029FCC046BD4680BD1C010020001000409C
:101C5000FFFF000080B584B000AF78607B681B6830
:101C6000094A93420BD1094BDA69084B10210A4308
:101C7000DA61064BDB6910221340FB60FB68C0464B
:101C8000BD4604B080BDC0460010004000100240B8
:101C900080B582B000AF0200BB1D1A80114B180046
:101CA00002F09EF80F4B1B6800225A62BB1D1B8876
:101CB000042B04D9BB1D1B88023B9AB200E0012211
:101CC000BB1D1A80C046BB1D1A88064B1B685B6A89
:101CD0009A42F8D8034B180002F0C6F8C046BD4639
:101CE00002B080BD1C01002080B500AF144B154A26
:101CF0001A60134B962292015A60114B00229A608F
:101D00000F4B0022DA600E4B00221A610C4B0C22A2
:101D10005A610B4B00229A61094B0022DA61084B91
:101D200000221A62064B00225A62054B180002F08C
:101D300037F9031E01D0FFF7ADFBC046BD4680BD9D
:101D4000640100200038014090B58BB000AF78608E
:101D500014243B19180014231A00002104F0A2F8DF
:101D60007B681B68214A93423BD1214B9A69204BE7
:101D70008021C9010A439A611D4B9A698023DB01C6
:101D800013403B613B691A4B5A69194B8021890208
:101D90000A435A61164B5A6980239B021340FB6029
:101DA000FB683B19C022D2001A6021007B18022276
:101DB0005A607B1800229A607B180322DA607B1835
:101DC00001221A617A189023DB051100180000F037
:101DD0001FFA002201211B2000F06AF91B2000F0ED
:101DE0007CF9C046BD460BB090BDC04600380140EE
:101DF000001002400D4885460D480E490E4A00234A
:101E000002E0D458C4500433C4188C42F9D30B4AAE
:101E10000B4C002301E013600432A242FBD3FFF716
:101E2000F1FE04F01BF8FFF7F9F9FEE700200020AF
:101E3000000000208C000020D47100088C000020DD
:101E400078020020FEE7000080B500AF074B1A685B
:101E5000064B10210A431A60002000F009F8FFF732
:101E600041FE00231800BD4680BDC0460020024050
:101E700090B583B000AF7860144B1C68144B1B788E
:101E80001900FA239800FEF751F903001900200009
:101E9000FEF74CF90300180000F02FF9031E01D0E3
:101EA00001230FE07B68032B0BD8796801235B4289
:101EB0000022180000F0FCF8064B7A681A60002334
:101EC00000E001231800BD4603B090BD1C000020B7
:101ED000240000202000002080B500AF054B1B78B7
:101EE0001A00054B1B68D218034B1A60C046BD464A
:101EF00080BDC04624000020E801002080B500AF6E
:101F0000024B1B681800BD4680BDC046E80100209A
:101F100080B584B000AF7860FFF7F0FF0300BB60CE
:101F20007B68FB60FB68013305D00A4B1B781A0005
:101F3000FB689B18FB60C046FFF7E0FF0200BB6830
:101F4000D31AFA689A42F7D8C046C046BD4604B0D4
:101F500080BDC0462400002080B582B000AF0200E2
:101F6000FB1D1A70FB1D1B787F2B09D8FB1D1B78EE
:101F70001A001F231A40044B012191400A001A60E5
:101F8000C046BD4602B080BD00E100E090B583B020
:101F900000AF02003960FB1D1A70FB1D1B787F2B00
:101FA00028D82F4AFB1D1B785BB29B08C0339B00CF
:101FB0009B58FA1D1278110003220A40D200FF211B
:101FC00091400A00D2431A4011003B689B01FF2256
:101FD0001A40FB1D1B78180003230340DB009A40C6
:101FE0001F48FB1D1B785BB29B080A43C0339B0054
:101FF0001A5031E01B4AFB1D1B7819000F230B40C0
:10200000083B9B0806339B00D31804331B68FA1D5A
:102010001278110003220A40D200FF2191400A00E9
:10202000D2431A4011003B689B01FF221A40FB1D5E
:102030001B78180003230340DB009A400948FB1D6E
:102040001B781C000F232340083B9B080A430633E0
:102050009B00C31804331A60C046BD4603B090BD50
:1020600000E100E000ED00E080B582B000AF7860F4
:102070007B685A1E80235B049A4201D3012310E03F
:102080000A4B7A68013A5A6001235B420321180027
:10209000FFF77CFF054B00229A60044B07221A6071
:1020A00000231800BD4602B080BDC04610E000E02D
:1020B00080B584B000AFB9607A600F217B18021C34
:1020C0001A70BA687B181B785BB211001800FFF712
:1020D0005DFFC046BD4604B080BD80B582B000AF94
:1020E0000200FB1D1A70FB1D1B785BB21800FFF786
:1020F00033FFC046BD4602B080BD80B582B000AFA0
:1021000078607B681800FFF7AFFF03001800BD463A
:1021100002B080BD80B582B000AF78607B682122BC
:102120009B5CDBB2022B08D07B6804229A637B683D
:10213000202200219954012320E07B681B681A6843
:102140007B681B680E218A431A607B681B681A68CB
:102150007B681B6801218A431A607B681A6C7B6864
:10216000DB6B012191400A005A607B68212201212A
:1021700099547B6820220021995400231800BD4601
:1021800002B080BD80B584B000AF78600F217B18AD
:1021900000221A707B6821229B5CDBB2022B06D0E6
:1021A0007B6804229A637B1801221A7028E07B68FE
:1021B0001B681A687B681B680E218A431A607B685B
:1021C0001B681A687B681B6801218A431A607B6858
:1021D0001A6C7B68DB6B012191400A005A607B68B6
:1021E0002122012199547B682022002199547B6887
:1021F0005B6B002B04D07B685B6B7A6810009847A0
:102200000F23FB181B781800BD4604B080BD0000EA
:1022100080B586B000AF7860396000237B614FE104
:102220003B681B6801217A6991400A001340FB60FA
:10223000FB68002B00D140E13B685B68012B0BD0B1
:102240003B685B68022B07D03B685B68112B03D0AF
:102250003B685B68122B30D17B689B683B617B6974
:102260005B0003229A401300DA433B6913403B6151
:102270003B68DA687B695B009A4013003A69134354
:102280003B617B683A699A607B685B683B610122CD
:102290007B699A401300DA433B6913403B613B681A
:1022A0005B681B0901221A407B699A4013003A6956
:1022B00013433B617B683A695A607B68DB683B612A
:1022C0007B695B0003229A401300DA433B691340A9
:1022D0003B613B689A687B695B009A4013003A69EE
:1022E00013433B617B683A69DA603B685B68022BA9
:1022F00003D03B685B68122B23D17B69DA087B68CB
:1023000008329200D3583B617B69072213409B003F
:102310000F229A401300DA433B6913403B613B684C
:102320001A697B6907210B409B009A4013003A69A8
:1023300013433B617B69DA087B6808329200396994
:10234000D1507B681B683B617B695B0003229A402C
:102350001300DA433B6913403B613B685B6803222F
:102360001A407B695B009A4013003A6913433B6152
:102370007B683A691A603B685A6880235B051340A2
:1023800000D19AE0544B9A69534B01210A439A6158
:10239000514B9B6901221340BB60BB684F4A7B696C
:1023A0009B0802339B009B583B617B6903221340CF
:1023B0009B000F229A401300DA433B6913403B61B4
:1023C0007A689023DB059A4213D07B68444A934293
:1023D0000DD07B68434A934207D07B68424A9342C0
:1023E00001D1032306E0052304E0022302E00123D8
:1023F00000E000237A6903210A40920093403A6981
:1024000013433B6135497B699B0802339B003A6962
:102410005A50364B1B683B61FB68DA433B691340FB
:102420003B613B685A6880235B02134003D03A69E2
:10243000FB6813433B612D4B3A691A602B4B5B6879
:102440003B61FB68DA433B6913403B613B685A6878
:1024500080239B02134003D03A69FB6813433B611E
:10246000224B3A695A60214B9B683B61FB68DA4317
:102470003B6913403B613B685A6880235B03134010
:1024800003D03A69FB6813433B61184B3A699A6081
:10249000164BDB683B61FB68DA433B6913403B61E9
:1024A0003B685A6880239B03134003D03A69FB685A
:1024B00013433B610D4B3A69DA607B6901337B6101
:1024C0003B681A687B69DA40131E00D0A8E6C04654
:1024D000C046BD4606B080BD00100240000001406D
:1024E0000004004800080048000C004800040140B7
:1024F00080B584B000AF78600A00BB1C1A807B688E
:102500001B69BA1C1288134004D00F23FB18012248
:102510001A7003E00F23FB1800221A700F23FB1818
:102520001B781800BD4604B080BD80B582B000AFF6
:10253000786008001100BB1C021C1A807B1C0A1C5E
:102540001A707B1C1B78002B04D0BB1C1A887B687C
:102550009A6103E0BB1C1A887B689A62C046BD463C
:1025600002B080BD80B582B000AF78607B68002B80
:1025700001D1012382E07B6841229B5CDBB2002B0E
:1025800007D17B684022002199547B681800FEF730
:10259000F7FD7B684122242199547B681B681A68E7
:1025A0007B681B6801218A431A607B685A687B68D4
:1025B0001B6834490A401A617B681B689A687B680B
:1025C0001B6831490A409A607B68DB68012B08D19F
:1025D0007B689A687B681B68802109020A439A60BD
:1025E00007E07B689A687B681B68842109020A43BC
:1025F0009A607B68DB68022B04D17B681B688022B1
:1026000012015A607B681B685A687B681B681F4907
:102610000A435A607B681B68DA687B681B681A4942
:102620000A40DA607B681A697B685B691A431100AB
:102630007B689B691A027B681B680A43DA607B68C7
:10264000D9697B681A6A7B681B680A431A607B68D1
:102650001B681A687B681B6801210A431A607B6843
:1026600000225A647B684122202199547B68002211
:102670001A637B6842220021995400231800BD464A
:1026800002B080BDFFFFFFF0FF7FFFFF0080000270
:1026900090B589B002AFF86008007A6019000A238B
:1026A000FB18021C1A800823FB180A1C1A80FB68FE
:1026B00041229B5CDBB2202B00D0E7E0FB6840228C
:1026C0009B5C012B01D10223E1E0FB684022012148
:1026D0009954FFF713FC03007B6180231902F8680B
:1026E0007B6900931923012200F096FB031E01D0A1
:1026F0000123CCE0FB68412221219954FB6842224E
:1027000010219954FB6800225A64FB687A685A6267
:10271000FB680822BA1812885A85FB6800225A639F
:10272000FB685B8D9BB2FF2B11D9FB68FF221A85DA
:10273000FB681B8DDAB280235C040A23FB1819881E
:10274000F868554B0093230000F0F2FC75E0FB683D
:102750005B8D9AB2FB681A85FB681B8DDAB2802309
:102760009C040A23FB181988F8684B4B009323003C
:1027700000F0DEFC61E07A69B96AFB68180000F0DD
:102780008AFB031E01D0012381E0FB685B6A1A7893
:10279000FB681B689A62FB685B6A5A1CFB685A629A
:1027A000FB685B8D9BB2013B9AB2FB685A85FB6864
:1027B0001B8D013B9AB2FB681A85FB685B8D9BB24F
:1027C000002B3AD0FB681B8D002B36D1BA6AF86813
:1027D0007B69009313000022802100F01DFB031E83
:1027E00001D0012353E0FB685B8D9BB2FF2B11D915
:1027F000FB68FF221A85FB681B8DDAB280235C041C
:102800000A23FB181988F86800230093230000F0BE
:102810008FFC12E0FB685B8D9AB2FB681A85FB683F
:102820001B8DDAB280239C040A23FB181988F868F0
:1028300000230093230000F07BFCFB685B8D9BB2C0
:10284000002B98D17A69B96AFB68180000F062FB26
:10285000031E01D001231AE0FB681B682022DA6105
:10286000FB681B685A68FB681B680C490A405A6081
:10287000FB68412220219954FB684222002199548F
:10288000FB68402200219954002300E00223180035
:10289000BD4607B090BDC0460020008000E800FEA5
:1028A00090B589B002AFF86008007A6019000A2379
:1028B000FB18021C1A800823FB180A1C1A80FB68EC
:1028C00041229B5CDBB2202B00D0E8E0FB68402279
:1028D0009B5C012B01D10223E2E0FB684022012135
:1028E0009954FFF70BFB03007B6180231902F86802
:1028F0007B6900931923012200F08EFA031E01D098
:102900000123CDE0FB68412222219954FB68422239
:1029100010219954FB6800225A64FB687A685A6255
:10292000FB680822BA1812885A85FB6800225A638D
:10293000FB685B8D9BB2FF2B11D9FB68FF221A85C8
:10294000FB681B8DDAB280235C040A23FB1819880C
:10295000F868554B0093230000F0EAFB76E0FB6833
:102960005B8D9AB2FB681A85FB681B8DDAB28023F7
:102970009C040A23FB181988F8684B4B009323002A
:1029800000F0D6FB62E07A69B96AFB68180000F0D3
:10299000FDFA031E01D0012382E0FB681B685A6A1E
:1029A000FB685B6AD2B21A70FB685B6A5A1CFB68F0
:1029B0005A62FB681B8D013B9AB2FB681A85FB6863
:1029C0005B8D9BB2013B9AB2FB685A85FB685B8DBD
:1029D0009BB2002B3AD0FB681B8D002B36D1BA6A14
:1029E000F8687B69009313000022802100F014FA3C
:1029F000031E01D0012353E0FB685B8D9BB2FF2BCC
:102A000011D9FB68FF221A85FB681B8DDAB280237F
:102A10005C040A23FB181988F8680023009323003C
:102A200000F086FB12E0FB685B8D9AB2FB681A85AA
:102A3000FB681B8DDAB280239C040A23FB181988DB
:102A4000F86800230093230000F072FBFB685B8DA5
:102A50009BB2002B97D17A69B96AFB68180000F025
:102A600059FA031E01D001231AE0FB681B682022DB
:102A7000DA61FB681B685A68FB681B680B490A40EF
:102A80005A60FB68412220219954FB6842220021B0
:102A90009954FB68402200219954002300E002234E
:102AA0001800BD4607B090BD0024008000E800FE7D
:102AB00090B589B002AFF8600C00100019000A232D
:102AC000FB18221C1A800823FB18021C1A80BB1D4D
:102AD0000A1C1A80FB6841229B5CDBB2202B00D0D1
:102AE0000CE1BB6A002B04D02C23FB181B88002BA5
:102AF00005D1FB68802292005A640123FFE0FB6845
:102B000040229B5C012B01D10223F8E0FB684022AC
:102B100001219954FFF7F2F903007B618023190228
:102B2000F8687B6900931923012200F075F9031EF0
:102B300001D00123E3E0FB68412221219954FB6885
:102B4000422240219954FB6800225A64FB68BA6A09
:102B50005A62FB682C22BA1812885A85FB68002238
:102B60005A63BB1D1C880823FB181A880A23FB180C
:102B70001988F8687B6901933B6B0093230000F090
:102B8000C5F8031E05D0FB6840220021995401239B
:102B9000B5E0FB685B8D9BB2FF2B11D9FB68FF2270
:102BA0001A85FB681B8DDAB280235C040A23FB18AC
:102BB0001988F86800230093230000F0B9FA12E0A6
:102BC000FB685B8D9AB2FB681A85FB681B8DDAB2D5
:102BD00080239C040A23FB181988F86800230093BB
:102BE000230000F0A5FA7A69396BFB68180000F041
:102BF00052F9031E01D0012381E0FB685B6A1A7859
:102C0000FB681B689A62FB685B6A5A1CFB685A6225
:102C1000FB685B8D9BB2013B9AB2FB685A85FB68EF
:102C20001B8D013B9AB2FB681A85FB685B8D9BB2DA
:102C3000002B3AD0FB681B8D002B36D13A6BF8681D
:102C40007B69009313000022802100F0E5F8031E49
:102C500001D0012353E0FB685B8D9BB2FF2B11D9A0
:102C6000FB68FF221A85FB681B8DDAB280235C04A7
:102C70000A23FB181988F86800230093230000F04A
:102C800057FA12E0FB685B8D9AB2FB681A85FB6805
:102C90001B8DDAB280239C040A23FB181988F8687C
:102CA00000230093230000F043FAFB685B8D9BB286
:102CB000002B98D17A69396BFB68180000F02AF96B
:102CC000031E01D001231AE0FB681B682022DA6191
:102CD000FB681B685A68FB681B680B490A405A600E
:102CE000FB68412220219954FB684222002199541B
:102CF000FB68402200219954002300E002231800C1
:102D0000BD4607B090BDC04600E800FEB0B586B035
:102D100002AFF8600C00100019000A257B19221C74
:102D20001A800823FB18021C1A80BB1D0A1C1A807B
:102D3000BB1D1B88DAB280235C047B191988F868F4
:102D4000234B0093230000F0F3F97A6A396AFB6899
:102D5000180000F0A0F8031E01D0012333E0BB1DD2
:102D60001B88012B07D10823FB181B88DAB2FB68EC
:102D70001B689A6219E00823FB181B881B0A9BB288
:102D8000DAB2FB681B689A627A6A396AFB681800D3
:102D900000F081F8031E01D0012314E00823FB1882
:102DA0001B88DAB2FB681B689A623A6AF8687B6A29
:102DB000009313000022802100F02EF8031E01D0A2
:102DC000012300E000231800BD4604B0B0BDC0469A
:102DD0000020008080B582B000AF78607B681B68FF
:102DE0009B6902221340022B03D17B681B680022DF
:102DF0009A627B681B689B6901221340012B07D0F4
:102E00007B681B689A697B681B6801210A439A6189
:102E1000C046BD4602B080BD80B584B000AFF8604A
:102E2000B9603B60FB1D1A7021E03B6801331ED086
:102E3000FFF764F80200BB69D31A3A689A4202D3DA
:102E40003B68002B13D1FB685B6C20221A43FB68A4
:102E50005A64FB68412220219954FB6842220021D8
:102E60009954FB6840220021995401230FE0FB682C
:102E70001B689B69BA681340BA68D31A5A42534117
:102E8000DBB21A00FB1D1B789A42CED0002318003B
:102E9000BD4604B080BD80B584B000AFF860B960B5
:102EA0007A602BE07A68B968FB68180000F0DAF8FD
:102EB000031E01D0012329E0BB6801331ED0FFF7B8
:102EC0001DF802007B68D31ABA689A4202D3BB6825
:102ED000002B13D1FB685B6C20221A43FB685A64F9
:102EE000FB68412220219954FB6842220021995419
:102EF000FB68402200219954012307E0FB681B680E
:102F00009B6902221340022BCCD100231800BD463E
:102F100004B080BD80B584B000AFF860B9607A605D
:102F200028E07A68B968FB68180000F09BF8031E77
:102F300001D0012326E0FEF7E1FF02007B68D31AEF
:102F4000BA689A4202D3BB68002B13D1FB685B6C52
:102F500020221A43FB685A64FB68412220219954BD
:102F6000FB68422200219954FB68402200219954B9
:102F7000012307E0FB681B689B6920221340202B7C
:102F8000CFD100231800BD4604B080BD80B584B009
:102F900000AFF860B9607A6055E07A68B968FB689C
:102FA000180000F05FF8031E01D0012353E0FB6816
:102FB0001B689B6920221340202B29D1FB681B68CA
:102FC0009B6904221340042B05D1FB681B8D002B49
:102FD00001D000233FE0FB681B682022DA61FB6818
:102FE0001B685A68FB681B681D490A405A60FB68E9
:102FF00000225A64FB68412220219954FB68422236
:1030000000219954FB68402200219954012322E0B9
:10301000FEF774FF02007B68D31ABA689A4202D3A3
:10302000BB68002B0FD1FB685B6C20221A43FB6846
:103030005A64FB68412220219954FB6840220021F8
:103040009954012307E0FB681B689B690422134025
:10305000042BA2D100231800BD4604B080BDC04699
:1030600000E800FE80B584B000AFF860B9607A6017
:10307000FB681B689B6910221340102B51D121E083
:10308000BB6801331ED0FEF739FF02007B68D31AFC
:10309000BA689A4202D3BB68002B13D1FB685B6C01
:1030A00020221A43FB685A64FB684122202199546C
:1030B000FB68422200219954FB6840220021995468
:1030C00001232FE0FB681B689B6920221340202B03
:1030D000D6D1FB681B681022DA61FB681B682022CE
:1030E000DA61FB681800FFF775FEFB681B685A6819
:1030F000FB681B680D490A405A60FB685B6C042240
:103100001A43FB685A64FB68412220219954FB68EA
:10311000422200219954FB68402200219954012346
:1031200000E000231800BD4604B080BD00E800FEAA
:1031300090B585B000AFF860080011007B600A24EC
:103140003B19021C1A8009203B180A1C1A70FB68E4
:103150001B685B683A6A510D8022D2000A400E4912
:103160000A43D2431A4011003B191B889B059A0D54
:103170003B181B781804FF231B0403401A437B6889
:103180001A433B6A1A43FB681B680A435A60C046ED
:10319000BD4605B090BDC046FF63FF0380B582B059
:1031A00000AF786039607B6841229B5CDBB2202BEA
:1031B00038D17B6840229B5C012B01D1022332E095
:1031C0007B684022012199547B6841222421995433
:1031D0007B681B681A687B681B6801218A431A6038
:1031E0007B681B681A687B681B6811490A401A6073
:1031F0007B681B6819687B681B683A680A431A6019
:103200007B681B681A687B681B6801210A431A6087
:103210007B684122202199547B68402200219954E7
:10322000002300E002231800BD4602B080BDC04666
:10323000FFEFFFFF80B584B000AF786039607B6836
:1032400041229B5CDBB2202B39D17B6840229B5C06
:10325000012B01D1022333E07B68402201219954E4
:103260007B684122242199547B681B681A687B681B
:103270001B6801218A431A607B681B681B68FB601E
:10328000FB68114A1340FB603B681B02FA6813435A
:10329000FB607B681B68FA681A607B681B681A68A9
:1032A0007B681B6801210A431A607B684122202148
:1032B00099547B68402200219954002300E00223A6
:1032C0001800BD4604B080BDFFF0FFFF80B588B098
:1032D00000AF78607B68002B01D1012301E37B689C
:1032E0001B680122134000D18DE0C34B5B680C22A8
:1032F0001340042B0ED0C04B5B680C221340082BEC
:1033000016D1BD4B5A6880235B021A4080235B02B2
:103310009A420DD1B84B1A6880239B02134000D10A
:1033200070E07B685B68002B00D06BE00123D8E283
:103330007B685B68012B07D1AF4B1A68AE4B8021CD
:1033400049020A431A602FE07B685B68002B0CD1AE
:10335000A94B1A68A84BA9490A401A60A64B1A68DB
:10336000A54BA7490A401A601EE07B685B68052BE5
:103370000ED1A14B1A68A04B8021C9020A431A60E2
:103380009D4B1A689C4B802149020A431A600BE04E
:10339000994B1A68984B99490A401A60964B1A68DB
:1033A000954B97490A401A607B685B68002B14D0E4
:1033B000FEF7A4FD0300BB6108E0FEF79FFD0200DD
:1033C000BB69D31A642B01D903238AE28A4B1A689A
:1033D00080239B021340F0D015E0FEF78FFD030021
:1033E000BB6108E0FEF78AFD0200BB69D31A642BBB
:1033F00001D9032375E2804B1A6880239B02134096
:10340000F0D100E0C0467B681B680222134000D167
:1034100069E0794B5B680C2213400BD0764B5B68FC
:103420000C221340082B1CD1734B5A6880235B027B
:10343000134016D1704B1B680222134005D07B68E5
:10344000DB68012B01D001234BE26B4B1B68F82298
:10345000934319007B681B69DA00674B0A431A60C3
:1034600041E07B68DB68002B24D0634B1A68624B19
:1034700001210A431A60FEF741FD0300BB6108E029
:10348000FEF73CFD0200BB69D31A022B01D90323CE
:1034900027E2594B1B6802221340F1D0564B1B68A0
:1034A000F822934319007B681B69DA00524B0A43E8
:1034B0001A6018E0504B1A684F4B01218A431A607A
:1034C000FEF71CFD0300BB6108E0FEF717FD0200DC
:1034D000BB69D31A022B01D9032302E2464B1B68B6
:1034E00002221340F1D17B681B680822134036D0BA
:1034F0007B68DB69002B19D03F4B5A6A3E4B012198
:103500000A435A62FEF7FAFC0300BB6108E0FEF7CB
:10351000F5FC0200BB69D31A022B01D90323E0E1B9
:10352000354B5B6A02221340F1D018E0324B5A6AE5
:10353000314B01218A435A62FEF7E0FC0300BB6174
:1035400008E0FEF7DBFC0200BB69D31A022B01D9AD
:103550000323C6E1284B5B6A02221340F1D17B684A
:103560001B680422134000D1B4E01F203B18002246
:103570001A70214BDA6980235B05134010D11E4B72
:10358000DA691D4B802149050A43DA611A4BDA6971
:1035900080235B051340FB60FB683B1801221A7017
:1035A000184B1A6880235B0013401AD1154B1A6818
:1035B000144B802149000A431A60FEF79FFC030068
:1035C000BB6108E0FEF79AFC0200BB69D31A642BCA
:1035D00001D9032385E10B4B1A6880235B0013405C
:1035E000F0D07B689B68012B0ED1034B1A6A024B0B
:1035F00001210A431A6235E000100240FFFFFEFF7E
:10360000FFFFFBFF007000407B689B68002B0CD124
:10361000B64B1A6AB54B01218A431A62B34B1A6A38
:10362000B24B04218A431A621CE07B689B68052B1D
:103630000CD1AE4B1A6AAD4B04210A431A62AB4B54
:103640001A6AAA4B01210A431A620BE0A74B1A6AB5
:10365000A64B01218A431A62A44B1A6AA34B042188
:103660008A431A627B689B68002B14D0FEF746FCE5
:103670000300BB6109E0FEF741FC0200BB69D31AFD
:103680009B4A934201D903232BE1984B1B6A0222E8
:103690001340F0D013E0FEF731FC0300BB6109E0FA
:1036A000FEF72CFC0200BB69D31A914A934201D960
:1036B000032316E18D4B1B6A02221340F0D11F2316
:1036C000FB181B78012B05D1884BDA69874B894998
:1036D0000A40DA617B681B681022134063D07B6864
:1036E0005B69012B2AD1814B5A6B804B04210A4321
:1036F0005A637E4B5A6B7D4B01210A435A63FEF796
:10370000FDFB0300BB6108E0FEF7F8FB0200BB69AC
:10371000D31A022B01D90323E3E0744B5B6B022223
:103720001340F1D0714B5B6BF822934319007B6817
:103730009B69DA006D4B0A435A6334E07B685B692E
:10374000053311D1694B5A6B684B04218A435A6384
:10375000664B5B6BF822934319007B689B69DA0028
:10376000624B0A435A631EE0604B5A6B5F4B042165
:103770000A435A635D4B5A6B5C4B01218A435A637F
:10378000FEF7BCFB0300BB6108E0FEF7B7FB0200DD
:10379000BB69D31A022B01D90323A2E0534B5B6B05
:1037A00002221340F1D17B681B6A002B00D197E005
:1037B0004E4B5B680C221340082B00D16BE07B68FA
:1037C0001B6A022B4CD1494B1A68484B4A490A40A4
:1037D0001A60FEF793FB0300BB6108E0FEF78EFB67
:1037E0000200BB69D31A022B01D9032379E03F4BB6
:1037F0001A6880239B041340F0D13C4BDB6A0F22F4
:10380000934319007B68DA6A384B0A43DA62374B14
:103810005B683A4A134019007B689A6A7B685B6A66
:103820001A43324B0A435A60304B1A682F4B80219F
:1038300049040A431A60FEF761FB0300BB6108E01C
:10384000FEF75CFB0200BB69D31A022B01D90323EC
:1038500047E0264B1A6880239B041340F0D03FE0DA
:10386000224B1A68214B24490A401A60FEF746FB96
:103870000300BB6108E0FEF741FB0200BB69D31AFD
:10388000022B01D903232CE0184B1A6880239B04D8
:103890001340F0D124E07B681B6A012B01D1012386
:1038A0001FE0124B5B687B61104BDB6A3B617A69FE
:1038B00080235B021A407B685B6A9A420ED13B69A7
:1038C0000F221A407B68DB6A9A4207D17A69F0239B
:1038D0009B031A407B689B6A9A4201D0012300E057
:1038E00000231800BD4608B080BDC046001002404D
:1038F00088130000FFFFFFEFFFFFFFFEFFFFC2FF87
:1039000080B584B000AF786039607B68002B01D14E
:103910000123B3E05B4B1B68012213403A689A42D3
:1039200011D9584B1B68012293431900554B3A6833
:103930000A431A60534B1B68012213403A689A42AB
:1039400001D001239AE07B681B680222134015D046
:103950007B681B680422134006D04B4B5A684A4BC5
:10396000E021C9000A435A60474B5B68F022934349
:1039700019007B689A68444B0A435A607B681B684D
:103980000122134040D07B685B68012B07D13E4B7E
:103990001A6880239B02134014D101236EE07B68D8
:1039A0005B68022B07D1384B1A6880239B041340B5
:1039B00008D1012362E0344B1B680222134001D17D
:1039C00001235BE0304B5B680322934319007B6863
:1039D0005A682D4B0A435A60FEF790FA0300FB60C9
:1039E00009E0FEF78BFA0200FB68D31A274A9342DC
:1039F00001D9032342E0244B5B680C221A407B6808
:103A00005B689B009A42ECD11E4B1B68012213405D
:103A10003A689A4211D21B4B1B680122934319004A
:103A2000184B3A680A431A60164B1B680122134070
:103A30003A689A4201D0012320E07B681B68042287
:103A4000134009D0104B5B68114A134019007B6882
:103A5000DA680D4B0A435A6000F020F801000A4B67
:103A60005B681B090F2213400A4AD35C0A00DA4044
:103A7000094B1A600020FEF7FBF900231800BD4631
:103A800004B080BD002002400010024088130000F6
:103A9000FFF8FFFFC87000081C00002090B58FB031
:103AA00000AF1423FB182B4A13CA13C312681A6001
:103AB0003B1D294A13CA13C312681A600023FB6214
:103AC0000023BB6200237B6300237B6200233B63F4
:103AD000224B5B68FB62FB6A0C221340042B02D072
:103AE000082B03D02DE01E4B3B632DE0FB6A9B0CA3
:103AF0000F2213401422BA18D35C7B62174BDB6A87
:103B00000F2213403A1DD35CBB62FA6A80235B022A
:103B1000134009D0B96A1248FCF708FB03001A00E9
:103B20007B6A53437B6309E0796A0A005201521AA7
:103B300093019B1ADB005B181B027B637B6B3B636F
:103B400002E0074B3B63C0463B6B1800BD460FB01D
:103B500090BDC04694670008A467000800100240AA
:103B600000127A0080B500AF024B1B681800BD46FA
:103B700080BDC0461C00002080B500AFFFF7F2FFFB
:103B80000100064B5B681B0A07221340044AD35C02
:103B9000D9400B001800BD4680BDC0460010024051
:103BA000D870000880B586B000AF786000233B6114
:103BB0000023FB607B681A6880235B02134000D1FE
:103BC0008EE017203B1800221A70574BDA698023C9
:103BD0005B05134010D1544BDA69534B80214905E2
:103BE0000A43DA61504BDA6980235B051340BB60FE
:103BF000BB683B1801221A704C4B1A6880235B008B
:103C000013401AD1494B1A68484B802149000A4396
:103C10001A60FEF773F903003B6108E0FEF76EF9E6
:103C200002003B69D31A642B01D9032377E03F4B91
:103C30001A6880235B001340F0D03B4B1A6AC02304
:103C40009B001340FB60FB68002B34D07B685A68F4
:103C5000C0239B001340FA689A422CD0324B1B6A57
:103C6000334A1340FB60304B1A6A2F4B80214902C4
:103C70000A431A622C4B1A6A2B4B2E490A401A62CD
:103C8000294BFA681A62FB680122134013D0FEF731
:103C900035F903003B6109E0FEF730F902003B69AA
:103CA000D31A254A934201D9032338E01E4B1B6ADD
:103CB00002221340F0D01C4B1B6A1D4A134019000E
:103CC0007B685A68184B0A431A621723FB181B7843
:103CD000012B05D1144BDA69134B18490A40DA61FC
:103CE0007B681B680122134009D00F4B1B6B03221A
:103CF000934319007B689A680B4B0A431A637B68ED
:103D00001B682022134009D0074B1B6B10229343E2
:103D100019007B68DA68044B0A431A630023180011
:103D2000BD4606B080BDC046001002400070004095
:103D3000FFFCFFFFFFFFFEFF88130000FFFFFFEF08
:103D400080B582B000AF78607B68002B01D1012381
:103D500042E07B683D229B5CDBB2002B07D17B6895
:103D60003C22002199547B681800FDF773FF7B68A3
:103D70003D22022199547B681A687B68043319003C
:103D8000100000F097F87B684622012199547B6867
:103D90003E22012199547B683F22012199547B687E
:103DA0004022012199547B684122012199547B686A
:103DB0004222012199547B684322012199547B6856
:103DC0004422012199547B684522012199547B6842
:103DD0003D220121995400231800BD4602B080BD48
:103DE00080B584B000AF78607B683D229B5CDBB21D
:103DF000012B01D001232DE07B683D220221995443
:103E00007B681B68154A934209D07B681B68144A7B
:103E1000934204D07B681B68124A934211D17B689D
:103E20001B689B6807221340FB60FB68062B10D0C1
:103E30007B681B681A687B681B6801210A431A604B
:103E400007E07B681B681A687B681B6801210A43CE
:103E50001A6000231800BD4604B080BD002C01404C
:103E6000000400400040014080B582B000AF78609F
:103E70007B681B681B6A0D4A13400DD17B681B6869
:103E80001B6A0B4A134007D17B681B681A687B6862
:103E90001B6801218A431A607B683D2201219954E5
:103EA00000231800BD4602B080BDC04611110000BD
:103EB0004404000080B584B000AF786039607B684E
:103EC0001B68FB607B682F4A934203D07B682E4AB5
:103ED000934208D1FB6870229343FB603B685B68A8
:103EE000FA681343FB607B68264A934213D07B68D1
:103EF000254A93420FD07B68244A93420BD07B68BB
:103F0000234A934207D07B68224A934203D07B68BE
:103F1000214A934208D1FB68204A1340FB603B686A
:103F2000DB68FA681343FB60FB68802293431A0046
:103F30003B685B691343FB607B68FA681A603B6807
:103F40009A687B68DA623B681A687B689A627B6869
:103F50000C4A93420BD07B680D4A934207D07B6892
:103F60000C4A934203D07B680B4A934203D13B68CF
:103F70001A697B681A637B6801225A61C046BD4694
:103F800004B080BD002C014000040040002000402F
:103F9000004001400044014000480140FFFCFFFF99
:103FA00080B582B000AF78607B68002B01D101231F
:103FB00044E07B689B6F002B07D17B687422002153
:103FC00099547B681800FDF7BFFE7B6824229A672E
:103FD0007B681B681A687B681B6801218A431A602A
:103FE0007B68180000F0E4FA0300012B01D10123E3
:103FF00024E07B685B6A002B03D07B68180000F02C
:1040000017FC7B681B685A687B681B680D490A406F
:104010005A607B681B689A687B681B6808218A4322
:104020009A607B681B681A687B681B6801210A43D9
:104030001A607B68180000F0AFFC03001800BD4652
:1040400002B080BDFFF7FFFF80B58AB002AFF86015
:10405000B9603B60BB1D1A80FB689B6F202B00D0B2
:1040600096E0BB68002B03D0BB1D1B88002B01D141
:1040700001238EE0FB689A6880235B019A4209D194
:10408000FB681B69002B05D1BB680122134001D0DE
:1040900001237EE0FB6874229B5C012B01D102238B
:1040A00077E0FB68742201219954FB68802200218B
:1040B0009950FB6821229A67FDF720FF03007B617E
:1040C000FB68BA1D502112885A52FB68BA1D522152
:1040D00012885A52FB689A6880235B019A4208D181
:1040E000FB681B69002B04D10023FB61BB68BB612B
:1040F00003E0BB68FB610023BB61FB687422002105
:1041000099542DE07A69F8683B6800931300002207
:10411000802100F089FC031E01D0032339E0FB69F4
:10412000002B0BD1BB691A88FB681B68D205D20D26
:1041300092B21A85BB690233BB6108E0FB691A7849
:10414000FB681B6892B21A85FB690133FB61FB684F
:1041500052229B5A9BB2013B99B2FB685222995260
:10416000FB6852229B5A9BB2002BCBD17A69F8682C
:104170003B68009313000022402100F055FC031E11
:1041800001D0032305E0FB6820229A67002300E0AA
:1041900002231800BD4608B080BD000080B588B07D
:1041A00000AF78607B681B68DB69FB617B681B681C
:1041B0001B68BB617B681B689B687B61FB69B44AB9
:1041C00013403B613B69002B12D1FB692022134055
:1041D0000ED0BB69202213400AD07B685B6E002B97
:1041E00000D1BAE17B685B6E7A6810009847B4E151
:1041F0003B69002B00D1D9E07B690122134004D137
:10420000BB69A44A134000D1D0E0FB6901221340EE
:1042100010D0BA6980235B0013400BD07B681B6809
:1042200001221A627B6880229B5801221A437B6814
:1042300080215A50FB69022213400FD07B69012272
:1042400013400BD07B681B6802221A627B688022B5
:104250009B5804221A437B6880215A50FB69042230
:1042600013400FD07B69012213400BD07B681B6881
:1042700004221A627B6880229B5802221A437B68C0
:1042800080215A50FB690822134013D0BB692022B9
:10429000134003D17B69012213400BD07B681B685C
:1042A00008221A627B6880229B5808221A437B6886
:1042B00080215A50FA6980231B01134011D0BA693A
:1042C0008023DB0413400CD07B681B688022120122
:1042D0001A627B6880229B5820221A437B688021C7
:1042E0005A507B6880229B58002B00D137E1FB6934
:1042F000202213400CD0BB692022134008D07B68D9
:104300005B6E002B04D07B685B6E7A681000984768
:104310007B6880229B58FB607B681B689B684022FF
:104320001340402B03D0FB682822134033D07B6816
:10433000180000F0F7FB7B681B689B684022134065
:10434000402B23D17B681B689A687B681B684021DF
:104350008A439A607B681B6F002B12D07B681B6FAF
:104360004D4A5A637B681B6F1800FDF70BFF031E55
:104370001AD07B681B6F5A6B7B681B6F18009047C5
:1043800012E07B68180000F0FFF80DE07B68180071
:1043900000F0FAF808E07B68180000F0F5F87B6898
:1043A000802200219950DAE0C046D8E07B681B6E7D
:1043B000012B00D0B2E0FB691022134000D1ADE028
:1043C000BB691022134000D1A8E07B681B68102253
:1043D0001A627B681B689B6840221340402B5FD1A8
:1043E0007B681B6F1B685A6808217B181A807B1832
:1043F0001B88002B00D1B4E07B6858229B5A7A18A6
:1044000012889A4200D3ACE07B687A185A2112884D
:104410005A527B681B6F9B69202B2AD07B681B68D4
:104420001A687B681B681D490A401A607B681B6814
:104430009A687B681B6801218A439A607B681B68C5
:104440009A687B681B6840218A439A607B682022B7
:10445000DA677B6800221A667B681B681A687B68CB
:104460001B6810218A431A607B681B6F1800FDF7D8
:1044700051FE7B6858229A5A7B685A215B5A9BB23C
:10448000D31A9AB27B681100180000F085F868E032
:104490000F08000020010004854B0008FFFEFFFF0D
:1044A0007B685822995A7B685A229B5A9AB20A20F2
:1044B0003B188A1A1A807B685A229B5A9BB2002B9F
:1044C00051D03B181B88002B4DD07B681B681A68A5
:1044D0007B681B6827490A401A607B681B689A68DA
:1044E0007B681B6801218A439A607B682022DA6717
:1044F0007B6800221A667B6800225A667B681B680C
:104500001A687B681B6810218A431A603B181A8856
:104510007B681100180000F03FF824E0FB6980225E
:1045200013400DD0BB698022134009D07B689B6E7D
:10453000002B1AD07B689B6E7A681000984714E0B5
:10454000FB694022134011D0BB69402213400DD0BB
:104550007B68180000F02DFB08E0C04606E0C0466E
:1045600004E0C04602E0C04600E0C046BD4608B0D8
:1045700080BDC046DFFEFFFF80B582B000AF78602F
:10458000C046BD4602B080BD80B582B000AF786045
:10459000C046BD4602B080BD80B582B000AF786035
:1045A0000A00BB1C1A80C046BD4602B080BD000098
:1045B00080B588B000AF78601E23FB1800221A7007
:1045C0007B689A687B681B691A437B685B691A433E
:1045D0007B68DB6913437B617B681B681B688D4AC2
:1045E000134019007B681B687A690A431A607B686C
:1045F0001B685B68884A134019007B68DA687B682F
:104600001B680A435A607B689B697B617B681B6AF5
:104610007A6913437B617B681B689B687F4A134000
:1046200019007B681B687A690A439A607B681B687B
:104630007B4A934227D17B4B1B6B03221340032BF6
:104640000DD01BD8022B14D018D8002B02D0012B70
:104650000AD013E01F23FB1800221A7021E01F2349
:10466000FB1802221A701CE01F23FB1804221A7088
:1046700017E01F23FB1808221A7012E01F23FB18F3
:1046800010221A700DE07B681B68674A934204D1C0
:104690001F23FB1800221A7003E01F23FB181022AF
:1046A0001A707B68DA6980231B029A425DD11F234E
:1046B000FB181B78082B15D018DC042B0DD015DC4B
:1046C000002B02D0022B05D010E0FFF755FA0300B3
:1046D000BB6112E0554BBB610FE0FFF7DFF9030050
:1046E000BB610AE080231B02BB6106E00023BB61C3
:1046F0001E23FB1801221A70C046BB69002B00D193
:104700007BE0BB695A007B685B685B08D2187B68FA
:104710005B6819001000FBF709FD03009BB23B61C9
:104720003B690F2B1CD93A6980235B029A4217D24E
:104730003B699AB20E203B180F218A431A803B69CD
:104740005B089BB20722134099B23B183A181288B3
:104750000A431A807B681B683A181288DA604CE0BA
:104760001E23FB1801221A7047E01F23FB181B7839
:10477000082B15D018DC042B0DD015DC002B02D033
:10478000022B05D010E0FFF7F7F90300BB6112E040
:10479000264BBB610FE0FFF781F90300BB610AE024
:1047A00080231B02BB6106E00023BB611E23FB18B4
:1047B00001221A70C046BB69002B1ED07B685B6863
:1047C0005A08BB69D2187B685B6819001000FBF7B8
:1047D000ADFC03009BB23B613B690F2B09D93A69E1
:1047E00080235B029A4204D27B681B683A69DA60D4
:1047F00003E01E23FB1801221A707B6800225A6610
:104800007B6800229A661E23FB181B781800BD46A1
:1048100008B080BDF369FFFFFFCFFFFFFFF4FFFF8C
:1048200000380140001002400044004000127A00AD
:1048300080B582B000AF78607B685B6A012213406C
:104840000BD07B681B685B684A4A134019007B6881
:104850009A6A7B681B680A435A607B685B6A02221B
:1048600013400BD07B681B685B68434A13401900F8
:104870007B68DA6A7B681B680A435A607B685B6AFC
:10488000042213400BD07B681B685B683B4A1340D3
:1048900019007B681A6B7B681B680A435A607B6847
:1048A0005B6A082213400BD07B681B685B68344A44
:1048B000134019007B685A6B7B681B680A435A6077
:1048C0007B685B6A102213400BD07B681B689B6877
:1048D0002C4A134019007B689A6B7B681B680A435B
:1048E0009A607B685B6A202213400BD07B681B6850
:1048F0009B68254A134019007B68DA6B7B681B684C
:104900000A439A607B685B6A402213401DD07B6833
:104910001B685B681D4A134019007B681A6C7B6832
:104920001B680A435A607B681A6C80235B039A42B7
:104930000BD17B681B685B68154A134019007B68C4
:104940005A6C7B681B680A435A607B685B6A8022EA
:1049500013400BD07B681B685B680E4A134019003C
:104960007B689A6C7B681B680A435A60C046BD46E8
:1049700002B080BDFFFFFDFFFFFFFEFFFFFFFBFF5B
:10498000FF7FFFFFFFEFFFFFFFDFFFFFFFFFEFFFF7
:10499000FFFF9FFFFFFFF7FF80B586B002AF786093
:1049A0007B68802200219950FDF7A8FA0300FB6084
:1049B0007B681B681B6808221340082B0CD1FB681E
:1049C000802291037868174A0092002200F02CF8A8
:1049D000031E01D0032321E07B681B681B680422AF
:1049E0001340042B0CD1FB688022D10378680D4A58
:1049F0000092002200F018F8031E01D003230DE0FE
:104A00007B6820229A677B682022DA677B68002215
:104A10001A667B6874220021995400231800BD4651
:104A200004B080BDFFFFFF0180B584B000AFF86027
:104A3000B9603B60FB1D1A705EE0BB6901335BD05F
:104A4000FDF75CFA02003B68D31ABA699A4202D3B6
:104A5000BB69002B1BD1FB681B681A68FB681B68CD
:104A60002F490A401A60FB681B689A68FB681B683C
:104A700001218A439A60FB6820229A67FB68202202
:104A8000DA67FB68742200219954032344E0FB6831
:104A90001B681B68042213402ED0FB681B68DA6970
:104AA00080231B011A4080231B019A4224D1FB68FA
:104AB0001B68802212011A62FB681B681A68FB6877
:104AC0001B6817490A401A60FB681B689A68FB68F4
:104AD0001B6801218A439A60FB6820229A67FB6861
:104AE0002022DA67FB68802220219950FB6874221B
:104AF0000021995403230FE0FB681B68DB69BA6847
:104B00001340BA68D31A5A425341DBB21A00FB1D54
:104B10001B789A4291D000231800BD4604B080BD96
:104B20005FFEFFFF80B582B000AF78607B681B68D6
:104B30001A687B681B6812490A401A607B681B6808
:104B40009A687B681B6801218A439A607B681B6EA8
:104B5000012B07D17B681B681A687B681B681021D2
:104B60008A431A607B682022DA677B6800221A6613
:104B70007B6800225A66C046BD4602B080BDC04672
:104B8000DFFEFFFF80B584B000AF78607B685B6AB2
:104B9000FB60FB685A2200219952FB6852220021D7
:104BA0009952FB681800FFF7EFFCC046BD4604B001
:104BB00080BD80B582B000AF78607B681B681A68E2
:104BC0007B681B6840218A431A607B6820229A67B1
:104BD0007B6800229A667B681800FFF7CDFCC04610
:104BE000BD4602B080BD80B584B000AF78600023C0
:104BF000FB607B68002B01D100230CE00023FB60ED
:104C000002E0FB680133FB607B685A1C7A601B780A
:104C1000002BF6D1FB681800BD4604B080BD80B5FE
:104C200088B000AFF860B960BB1D1A80FB68BB613B
:104C3000BB687B61FB68002B02D0BB68002B01D1F5
:104C4000002345E0BA697B699A4206D9BB1D1B88DF
:104C50007A69D318BA699A421CD91E23FB1800221C
:104C60001A800FE01E203B181B887A69D2183B1867
:104C70001B88B969CB1812781A703B181A883B1830
:104C800001321A801E23FA18BB1D12881B889A4213
:104C9000E8D31CE01E23FB18BA1D12881A8011E00D
:104CA0001E203B181B88013B7A69D2183B181B88D1
:104CB000013BB969CB1812781A703B181A883B1857
:104CC000013A1A801E23FB181B88002BE8D1FB68D1
:104CD0001800BD4608B080BD80B584B000AF7860D4
:104CE0000023FB607B681B78FB60FB681B02FB609A
:104CF0007B6801331B781A00FB681343FB60FB6879
:104D00001B02FB607B6802331B781A00FB681343AD
:104D1000FB60FB681B02FB607B6803331B781A0097
:104D2000FB681343FB60FB681800BD4604B080BD00
:104D3000B0B584B000AF39601100FB1D021C1A70C1
:104D40003B1D0A1C1A800E23FB1800221A80264BDA
:104D50001B78DBB2012B01D1012341E00E257C1928
:104D6000FB1D1A787B191B881100180000F01CFD30
:104D7000030023807C197B191B880021180000F098
:104D800013FD030023803B1D1B881B0A9BB2DAB274
:104D90007C197B191B881100180000F005FD030029
:104DA00023803B1D1B88DAB27C197B191B881100FC
:104DB000180000F0F9FC030023807C193B1D1A88C1
:104DC00039687B191B88180000F00EFD0300238052
:104DD0007B191B881A000321072000F07FFD0123A7
:104DE0001800BD4604B0B0BD65020020B0B584B067
:104DF00000AF0200FB1D1A70BB1D0A1C1A700E23A7
:104E0000FB1800221A80294B1B78DBB2012B01D141
:104E1000012347E00E257C19FB1D1A787B191B889E
:104E20001100180000F0C0FC030023807C197B19DE
:104E30001B880121180000F0B7FC030023807C19B7
:104E40007B191B880021180000F0AEFC03002380B2
:104E50007C197B191B880121180000F0A5FC0300B8
:104E60002380BB1D1B78002B09D17C197B191B8863
:104E70000021180000F098FC0300238009E00E23B5
:104E8000FC18FB181B880121180000F08DFC0300A2
:104E900023800E23FB181B881A000321072000F033
:104EA0001DFD01231800BD4604B0B0BD6502002001
:104EB000B0B584B000AF02003960FB1D1A700E233C
:104EC000FB1800221A80344B1B78DBB2012B01D176
:104ED00001235DE00E257C19FB1D1A787B191B88C8
:104EE0001100180000F060FC030023807C197B197E
:104EF0001B880221180000F057FC030023807C1956
:104F00007B191B880021180000F04EFC0300238051
:104F10007C197B191B880421180000F045FC030054
:104F200023803B681B0EDAB27C197B191B881100A9
:104F3000180000F039FC030023803B681B0CDAB238
:104F40007C197B191B881100180000F02DFC030050
:104F500023803B681B0ADAB27C197B191B8811007D
:104F6000180000F021FC030023803B68DAB27C19B2
:104F70007B191B881100180000F016FC0300238029
:104F80007B191B881A000321072000F0A7FC0123CE
:104F90001800BD4604B0B0BD65020020B0B584B0B5
:104FA00000AF0200FB1D1A70BB1D0A1C1A700E23F5
:104FB000FB1800221A80224B1B78DBB2012B01D197
:104FC000012339E00E257C19FB1D1A787B191B88FB
:104FD0001100180000F0E8FB030023807C197B1906
:104FE0001B880421180000F0DFFB030023807C19DC
:104FF0007B191B880021180000F0D6FB03002380DA
:105000007C197B191B880121180000F0CDFB0300DF
:1050100023807C19BB1D1A787B191B88110018008E
:1050200000F0C2FB030023807B191B881A000321B8
:10503000072000F053FC01231800BD4604B0B0BDAA
:105040006502002080B582B000AF78600A00BB1C0A
:105050001A807B681B781800BD4602B080BD80B501
:1050600082B000AF78600A00BB1C1A807B681B7896
:105070001800BD4602B080BD80B582B000AF786038
:105080000A00BB1C1A807B681800FFF725FE03008E
:105090001800BD4602B080BD80B582B000AF0200EE
:1050A000FB1D1A70144B1A68144B1B68D31A012B82
:1050B0001DD0124B1A68104B1B689A4206D90F4B31
:1050C0001A680D4B1B68D31A162B10D80B4B1A6895
:1050D0000B4B9A4202D3094B0A4A1A60074B1B68D2
:1050E000591C064A1160FA1D12781A70FFE7C04673
:1050F000BD4602B080BDC046280200200C02002040
:10510000270200201002002090B583B000AFBB1D25
:1051100000221A803B1D00221A800CE05F4B1B8886
:105120005A1C91B25D4A11801C0000F069FE030018
:105130001A005B4B1A55594B1B881E2B03D800F0E5
:105140004DFE031EEAD1554B1B88062B00D8A1E06B
:105150007EE0BB1D1B88524AD35CDBB2552B05D0C9
:10516000BB1D1A88BB1D01321A8071E0BB1D1B8854
:1051700001334B4AD35CDBB2AA2B05D0BB1D1A8886
:10518000BB1D01321A8063E0BB1D1B880233444AF9
:10519000D35CDBB2002B05D0BB1DBA1D12880232D6
:1051A0001A8055E0BB1D1B8804333D4AD35CDBB23B
:1051B0009AB23B1D12021A80BB1D1B880533384A68
:1051C000D35CDBB2073399B23B1D3A1D12888A18B3
:1051D0001A803B1D1B88262B05D9BB1DBA1D1288C2
:1051E00003321A8034E02D4B1B881A00BB1D1B882C
:1051F000D21A3B1D1B889A4234DBBB1D1A88284BF0
:10520000D2183B1D1B88013B9BB21900100000F017
:1052100013FB03001900BB1D1A883B1D1B88D31804
:10522000013B1F4AD35CDBB2994205D0BB1DBA1DBE
:10523000128803321A800BE0BB1D1B88180000F097
:105240000FFDBB1DB91D3A1D098812888A181A80E6
:10525000124B1B881A00BB1D1B88D31A062B00DDBE
:1052600077E700E0C0460D4B1A88BB1D1B88D31A98
:105270009AB20A4B1A80094B1B88002B0BD0BB1D1E
:105280001A88074BD118054B1A88054B1800FFF7F1
:10529000C6FC00E0C046BD4603B090BDC000002083
:1052A000EC01002080B500AF074B084A1A60084B9C
:1052B000064A1A60074B00221A70074BFF221A7029
:1052C000C046BD4680BDC0460C0200201002002032
:1052D00028020020650200206302002080B582B011
:1052E00000AF0200FB1D1A70FA239B00F91D044851
:1052F0000122FEF7A9FEC046BD4602B080BDC046F1
:105300006401002080B500AFC046BD4680BDB0B589
:1053100084B000AF78600A00BB1C1A800F257C198E
:10532000BB1C1A887B6819000120FFF701FD0300F0
:1053300023707B191B78012B01D1012300E000238E
:105340001800BD4604B0B0BDF0B585B000AF7860C0
:105350000A00BB1C1A800F257C19BB1C1A887B68AD
:1053600011001800FFF76EFE030023700E26BC1913
:105370007B191B7819000220FFF738FD030023700A
:10538000BB191B78012B01D1012300E00023180079
:10539000BD4605B0F0BDB0B584B000AF78600A007E
:1053A000BB1C1A80BB1C1A887B6811001800FFF711
:1053B00063FE0300FB600B257C19FB6819000320CA
:1053C000FFF776FD030023707B191B78012B01D1B9
:1053D000012300E000231800BD4604B0B0BDB0B505
:1053E00084B000AF78600A00BB1C1A800F257C19BE
:1053F000BB1C1A887B6811001800FFF730FE030001
:1054000023707B191B78022B05D006DC002B06D0FD
:10541000012B06D001E0C04604E0C04602E0C046D1
:1054200000E0C0460E257C190F23FB181B781900DD
:105430000520FFF7B3FD030023707B191B78012BB8
:1054400001D1012300E000231800BD4604B0B0BD27
:10545000F0B585B000AF78600A00BB1C1A800F253C
:105460007C19BB1C1A887B6811001800FFF7EAFD45
:10547000030023700E26BC197B191B781900062027
:10548000FFF7B4FC03002370BB191B78012B01D17B
:10549000012300E000231800BD4605B0F0BDF0B5C3
:1054A00085B000AF78600A00BB1C1A800F257C19FC
:1054B000BB1C1A887B6811001800FFF7C3FD0300AE
:1054C00023700E26BC197B191B7819000720FFF7E3
:1054D0008DFC03002370BB191B78012B01D1012324
:1054E00000E000231800BD4605B0F0BDF0B585B062
:1054F00000AF78600A00BB1C1A800F257C19BB1C0A
:105500001A887B6811001800FFF79CFD03002370C8
:105510000E26BC197B191B7819000820FFF766FCC2
:1055200003002370BB191B78012B01D1012300E07C
:1055300000231800BD4605B0F0BDB0B584B000AF83
:1055400078600A00BB1C1A80BB1C1A887B6811009B
:105550001800FFF791FD0300FB600B257C19FB6829
:1055600019001220FFF7A4FC030023707B191B789D
:10557000012B01D1012300E000231800BD4604B037
:10558000B0BD0000B0B584B000AF78600A00BB1CAD
:105590001A800F257C19BB1C1A887B681100180023
:1055A000FFF750FD030023707B191B78002B07D1F8
:1055B0008023DB01114801221900FCF7B6FF06E049
:1055C0008023DB010D4800221900FCF7AEFF0E25F9
:1055D0007C190F23FB181B7819001320FFF706FC1A
:1055E000030023707B191B78012B01D1012300E0FC
:1055F00000231800BD4604B0B0BDC04600040048FA
:10560000F0B585B000AF78600A00BB1C1A800F258A
:105610007C19BB1C1A887B6811001800FFF712FD6B
:10562000030023700E26BC197B191B781900142067
:10563000FFF7DCFB03002370BB191B78012B01D1A2
:10564000012300E000231800BD4605B0F0BD0000B6
:1056500090B585B000AF39601100FB1D021C1A70B7
:105660003B1D0A1C1A80FB1D1B78142B00D97CE003
:105670009A00424BD3181B689F460F23FC183B1D12
:105680001A883B6811001800FFF741FE03002370E1
:105690006CE00F23FC183B1D1A883B6811001800B2
:1056A000FFF752FE0300237060E00F23FC183B1D40
:1056B0001A883B6811001800FFF76DFE0300237085
:1056C00054E00F23FC183B1D1A883B68110018009A
:1056D000FFF785FE0300237048E00F23FC183B1DF5
:1056E0001A883B6811001800FFF7B2FE0300237010
:1056F0003CE00F23FC183B1D1A883B681100180082
:10570000FFF7CDFE0300237030E00F23FC183B1D94
:105710001A883B6811001800FFF7E8FE03002370A9
:1057200024E00F23FC183B1D1A883B681100180069
:10573000FFF703FF0300237018E00F23FC183B1D45
:105740001A883B6811001800FFF71CFF0300237044
:105750000CE00F23FC183B1D1A883B681100180051
:10576000FFF74EFF0300237000E0C0460F23FB1835
:105770001B781800BD4605B090BDC04608710008F2
:1057800080B500AF13231800BD4680BD80B582B040
:1057900000AF0200FB1D1A70BB1D0A1C1A70C04628
:1057A000BD4602B080BD000080B584B000AF0200ED
:1057B000BB1D1A807B1D0A1C1A70BB1D1B889A1DFD
:1057C000084BD318FB60FB687A1D12781A70BB1D5A
:1057D000BA1D128801321A80BB1D1B881800BD46F5
:1057E00004B080BD2C02002080B584B000AF3960C9
:1057F0001100BB1D021C1A803B1D0A1C1A80BB1D18
:105800001B889A1D0B4BD318FB603B1D1A88396807
:10581000FB681800FFF703FABB1DB91D3A1D098884
:1058200012888A181A80BB1D1B881800BD4604B058
:1058300080BDC0462C02002080B584B000AF7860E7
:105840000A00BB1C1A800D23FB1800221A700E23BD
:10585000FB1800221A800FE07B685A1C7A601978C6
:105860000D22BB18BA1812788A181A700E217B18EC
:105870001A887B1801321A800E23FA18BB1C128872
:105880001B889A42E8D30D23FB181B781800BD46ED
:1058900004B080BD80B582B000AF78600A00BB1C48
:1058A0001A807B68002B14D0BB1C1B88002B10D0E7
:1058B00007E07B681B781800FFF710FD7B68013359
:1058C0007B60BB1C1B88BA1C591E1180002BF0D1B9
:1058D00000E0C046BD4602B080BD0000B0B584B057
:1058E00000AF040008001100FB1D221C1A70BB1D34
:1058F000021C1A703B1D0A1C1A800F217B18002203
:105900001A701F4B55221A701D4BAA225A701C4B3D
:10591000BA1D12789A701A4BFA1D1278DA703B1D74
:105920001B881B0A9BB2DAB2154B1A713B1D1B88F0
:10593000DAB2134B5A713B1D3A1D128807321A8096
:105940003B1D1B88013B9AB20D007C180C4B1100CB
:105950001800FFF771FF030023703B1D1B88013BFC
:10596000074A79190978D1543B1D1A88044B110054
:105970001800FFF78FFFC046BD4604B0B0BDC0465B
:105980002C02002080B582B000AFFB1D00221A70EF
:10599000144B1B78002B0ED1FB1D1B789BB20021F2
:1059A0001800FFF701FF03001A00FB1D1A700D4BD2
:1059B00001221A700AE0FB1D1B789BB2012118001E
:1059C000FFF7F2FE03001A00FB1D1A70FB1D1B7887
:1059D0009BB21A0003210020FFF780FFC046BD469E
:1059E00002B080BDC2000020B0B584B000AF0F256A
:1059F0007B1900221A703B1D00221A600433062214
:105A00000021180000F04EFA7B191B789CB2434B22
:105A10001800FFF7E8F803009AB2404B1900200085
:105A2000FFF7E2FE03001A007B191A707B191B783E
:105A30009CB23B4B1800FFF7D6F803009AB2384BE4
:105A400019002000FFF7D0FE03001A007B191A701E
:105A50007B191B789CB2334B1800FFF7C4F8030086
:105A60009AB2304B19002000FFF7BEFE03001A0067
:105A70007B191A707B191B789CB22B4B1800FFF70F
:105A8000B2F803009AB2284B19002000FFF7ACFED1
:105A900003001A007B191A707B191B789CB2234BE8
:105AA0001800FFF7A0F803009AB2204B190020005D
:105AB000FFF79AFE03001A007B191A707B191B78F6
:105AC0009CB21B4B1800FFF78EF803009AB2184BDC
:105AD00019002000FFF788FE03001A007B191A70D6
