:020000040800F2
:1000000000200020B1170008FD150008FF150008AA
:1000100000000000000000000000000000000000E0
:1000200000000000000000000000000001160008B1
:10003000000000000000000003160008051600087C
:10004000011800080000000001180008011800084D
:10005000011800080118000801180008011800081C
:10006000000000000118000801180008011800082D
:10007000011800080118000801180008000000001D
:10008000011800080118000800000000011800080D
:1000900001180008011800080118000801180008DC
:1000A0000118000801180008011800080D160008C2
:1000B000011800080000000000000000000000001F
:1000C00010B5064C2378002B07D1054B002B02D02E
:1000D000044800E000BF0123237010BD8C00002005
:1000E00000000000D0400008044B10B5002B03D0E6
:1000F0000349044800E000BF10BDC04600000000F6
:1001000090000020D04000080023C25C0133002A88
:10011000FBD1581E7047000002B4714649084900DF
:10012000095C49008E4402BC7047C04603B4714666
:10013000490840004900095E49008E4403BC7047ED
:10014000002243088B4274D303098B425FD3030A16
:100150008B4244D3030B8B4228D3030C8B420DD329
:10016000FF22090212BA030C8B4202D312120902B7
:1001700065D0030B8B4219D300E0090AC30B8B42F5
:1001800001D3CB03C01A5241830B8B4201D38B03A3
:10019000C01A5241430B8B4201D34B03C01A524148
:1001A000030B8B4201D30B03C01A5241C30A8B428B
:1001B00001D3CB02C01A5241830A8B4201D38B0276
:1001C000C01A5241430A8B4201D34B02C01A52411A
:1001D000030A8B4201D30B02C01A5241CDD2C3098C
:1001E0008B4201D3CB01C01A524183098B4201D308
:1001F0008B01C01A524143098B4201D34B01C01AF3
:10020000524103098B4201D30B01C01A5241C3086A
:100210008B4201D3CB00C01A524183088B4201D3D9
:100220008B00C01A524143088B4201D34B00C01AC5
:100230005241411A00D20146524110467047FFE731
:1002400001B5002000F006F802BDC0460029F7D035
:1002500076E770477047C0469E2110B5C905041C5B
:1002600000F0D2FC002803D1201C00F0FBFB10BDE5
:100270009E21201CC90500F02DFA00F0F3FB80231D
:100280001B069C466044F2E7F0B54F464646D6460C
:100290004502C0B547000C1C6D0A3F0EC60F002F6B
:1002A00066D0FF2F6CD00023EA00802599469A463D
:1002B000ED0415437F3F60026100430A9846090E32
:1002C000E40F002948D0FF2910D08022D800D204A2
:1002D0000243904600207F394A4633007F1A02438A
:1002E0006C4992008A586340DBB29746002B6DD16F
:1002F0000220FF3F33E00023984626004546824611
:100300005346022B00D17FE0032B00D194E0012B58
:1003100017D038007F3000285FDD6B0704D00F2333
:100320002B40042B00D004352B0103D538005A4B49
:1003300080301D40FE2867DCAD016D0AC0B202E0CE
:100340001E0000200025C0052843F6073043E0BC0E
:10035000BA46B146A846F0BD002B2BD101204A4633
:1003600033004E49024392008A586340DBB29746FD
:10037000002D13D104239946033B00279A469AE7A0
:10038000002D05D108239946063BFF279A4692E7A0
:100390000C239946093BFF279A468CE7280000F07A
:1003A0003DFC7627431F9D4000237F4299469A4695
:1003B0003F1A80E7180000F031FC4246431F7621C7
:1003C0009A404942091A9046002085E7FF21032000
:1003D00082E71E00FF200025B5E701231B1A1B2B17
:1003E000AFDC9E372900BD40D9406A1E95410D43C0
:1003F0006B0704D00F232B40042B00D004356B0176
:1004000044D5012000259EE7FF2000259BE780259D
:100410000026FF20ED0396E7002398468020C003C6
:10042000054209D04346034206D1454605436D02C5
:100430002600FF206D0A86E78020C00305436D0279
:10044000FF206D0A7FE741466A014801824219D2C6
:100450001B210025013F012614006D005200002CD5
:1004600001DB904201D8121A354301390029F3D13A
:10047000501E824138007F301E001543002800DDE9
:100480004BE7AAE71A210125121AE4E7AD01002083
:100490006D0A58E7E8400008FFFFFFF72841000811
:1004A000F8B557464E464546DE464402E0B545009F
:1004B0000F1C640A2D0EC60F002D47D0FF2D4DD006
:1004C000002380209A469B46E400C00404437F3DFD
:1004D0007802430A99467A00FB0F9846120E4B4663
:1004E00044D0FF2A11D0D8008023DB04034399466F
:1004F00000207F3AAD18474653467740691C0F2BC2
:100500003FD8724A9B00D3589F46FF35002B00D03E
:1005100079E0524602231A4392460220EBE747460F
:100520004C4683465B46022B28D0032B00D1C6E005
:10053000012B4FD100200024C005FF072043384382
:10054000F0BCBB46B246A946A046F8BD002C71D10E
:1005500004239A46033B00259B46B9E7002C63D150
:1005600008239A46063BFF259B46B1E7002B50D156
:10057000524601331A4392460120BCE7FF20002473
:10058000DAE74846260C2404220C0404240C4B46CB
:1005900020001B0C504374435A435E431219030C52
:1005A0009B189C4203D98022520294466644000460
:1005B0001A04000C12189401601E84411B0C920E48
:1005C0009B1914439B011C431B0172D50120630836
:1005D00004401C4308007F3000283CDD630704D042
:1005E0000F232340042B00D00434230103D5803192
:1005F0000800374B1C40FE28C0DCA401640AC0B2CE
:100600009AE737008EE7524603231A4392460320A7
:1006100071E7484600F002FB4A46431F9A402D1AF4
:1006200091460020763D66E70C239A46093BFF255C
:100630009B464DE7200000F0F1FA7625431F9C40D1
:1006400000236D429A469B462D1A41E780240027DD
:10065000FF20E40370E701231B1A1B2B00DD69E771
:100660009E3120008C40D840631E9C4104436307A8
:1006700004D00F232340042B00D0043463011AD587
:100680000120002458E78020C003044209D04B46D3
:10069000034206D14C46044364024746FF20640AE5
:1006A0004AE78020C003044364023700FF20640A45
:1006B00042E729008EE7A4010020640A3CE780207D
:1006C000C00304436402FF20640A35E76841000860
:1006D000FFFFFFF7F0B54646D6464F4643025B0A9A
:1006E000DA0094464A02C0B54400560A051CB046DA
:1006F000240E4E0092091F0020009246ED0F360E88
:10070000C90FFF2E00D17FE0012251408D4251D010
:10071000A21B9146002A00DC7EE0002E00D199E069
:10072000FF2C00D18CE080235246DB041A43924612
:100730004A4601231B2A08DC53462021D340891A4C
:1007400052468A40511E8A4113436246D31A5A01C7
:1007500000D4F3E09B019E09300000F05FFA0538F9
:100760008640844200DDF7E03200041B2020013483
:10077000E240041BA64033005E1EB3410024134335
:100780005A0704D00F221A40042A00D004335A0119
:1007900000D4D6E0621CFE2C00D1DAE09B015F0A97
:1007A000D0B2C0053843ED072843E0BCBA46B14695
:1007B000A846F0BDA21B9146002A63DD002E00D1A1
:1007C00099E0FF2C3CD080235246DB041A4392462A
:1007D0004A4601231B2A08DC53462021D340891AAC
:1007E00052468A40511E8A41134363445A0100D441
:1007F000A4E00134FF2C00D1ABE0012297491A405C
:100800005B080B401343BBE7002A32D08D4235D042
:10081000FF2252429146A1444A46002A51D0301B41
:10082000002C00D09CE06346002B00D1DFE00138B3
:10083000002800D1F7E0FF2E00D099E00D004346DC
:10084000002B00D185E08027FF031F437F02FF209C
:100850007F0AA6E75246002A74D0012252429046EF
:10086000C1444A46002A00D1C8E0FF2C00D05FE70F
:10087000E6E701225140A94200D049E7FF22524257
:100880009146A1444A46002A43D0311B002C00D196
:100890008CE0FF2E00D192E080236246DB041A43F5
:1008A000944601231B2909DC202063466246CB4085
:1008B000411A8A401100481E81410B4334005344C1
:1008C00094E7FE22661C324264D1002C00D082E004
:1008D0006346002B00D1ABE05346002B00D160E70C
:1008E000634652469B1A5A0100D4AAE06346524618
:1008F0000D00D31A44E75246002A23D00122524267
:100900009046C1444A46002A75D0FF2C00D05FE7CC
:1009100096E7FE260134264253D1002872D1634661
:10092000002B00D193E05346002B00D139E76344FC
:1009300000245A0102D54A4A013413405A0700D014
:1009400020E7DB08FF2C00D17AE75B025F0AE0B208
:1009500027E7FF20002724E7414B241A33400FE705
:10096000FF2E00D16AE780236246DB041A439446D7
:1009700001231B2809DC202463466246C340201A59
:1009800082401000441EA041034352460D00340033
:10099000D31ADCE6634652469E1A730117D4002E22
:1009A00000D0D9E6002500200027FAE66346002B98
:1009B00044D0013900294CD0FF2E00D071E74346C6
:1009C0003EE7FF2CC5D0524662445308B6E7634663
:1009D0000D00D61AC0E66246002A16D15346002BF7
:1009E00000D02BE780270025FF20FF03D9E60D006C
:1009F00043463400A6E753466344F7E6634652464F
:100A00009B1AA4E66246002AD9D05246002A00D199
:100A100016E78022D203134200D111E7404610426C
:100A200000D00DE70AE752460D003400D31A8EE6D7
:100A30005346002B08D00D004746B2E6434634002B
:100A400080E7002B00D079E700250027A9E647467C
:100A5000A7E6534634006344C8E6C046FFFFFF7D67
:100A6000FFFFFFFB41024200C30F490A0020120EA4
:100A70007E2A03D99D2A02D9094A981870478020F6
:100A800000040143952A07DC9620821AD14048428F
:100A9000002BF3D10800F1E7963A9140F7E7C04602
:100AA000FFFFFF7F70B5002813D0C317C5185D4046
:100AB000C40F280000F0B2F89E2301001B1A962BE9
:100AC0000FDC082801DD08398D406D026D0AD8B2AF
:100AD00002E0002400200025C0052843E40720434D
:100AE00070BD992B0BDD05222E00121AD640020094
:100AF0001B3295402800451EA841350005430529B5
:100B000001DD4A1F95402A00084E3240680709D08F
:100B10000F202840042805D00432500102D59F231D
:100B200032405B1A9201550AD8B2D5E7FFFFFFFBAE
:100B300070B5051E0ED000F071F89E2304001B1A3C
:100B4000962B0CDC082801DD083CA5406D026D0ADF
:100B5000D8B201E000200025C005284370BD992BC4
:100B600009DD020029001B3291404A1E91410522F5
:100B7000121AD5400D43052C01DD621F9540290056
:100B8000084E31406A0709D00F202840042805D0BC
:100B900004314A0102D59F2331401B1B89014D0AB4
:100BA000D8B2D9E7FFFFFFFB8446081C6146FFE788
:100BB0001FB500F0C5F8002801D40021C8421FBDB0
:100BC00010B500F049F84042013010BD10B500F0FA
:100BD000B7F8002801DB002010BD012010BDC04681
:100BE00010B500F0ADF8002801DD002010BD012097
:100BF00010BDC04610B500F057F8002801DC0020F9
:100C000010BD012010BDC04610B500F04DF8002801
:100C100001DA002010BD012010BDC0461C210123B7
:100C20001B04984201D3000C10391B0A984201D3CF
:100C3000000A08391B09984201D30009043902A2AD
:100C4000105C40187047C046040302020101010114
:100C5000000000000000000070B542004E024C0091
:100C600045026D0A120EC30F760A240EC90FFF2A21
:100C70000FD0FF2C11D00120A24200D070BDB54290
:100C8000FCD18B420DD0002AF8D12800451EA84186
:100C9000F4E70120002DF1D1EBE70120002EEDD18A
:100CA000E9E70020EAE7C046F0B5420046024D02FF
:100CB0004C00C30F760A120E6D0A240EC80FFF2ACD
:100CC0001FD0FF2C10D0002A1FD171427141002C7F
:100CD00001D1002D1ED000290ED183421ED0022149
:100CE000581E08400138F0BD002D26D1002AF4D14D
:100CF000714271410029F0D00028F4D10120404216
:100D0000F1E7002E19D1FF2CEED0002CE5D1002DFB
:100D1000E3D1E4E70020002EE5D0E0E7A24205DCC5
:100D2000EADBAE4202D8E7D30020DCE74142414192
:100D30004842022108400138D5E702204042D2E76C
:100D4000F0B5420046024D024C00C30F760A120E67
:100D50006D0A240EC80FFF2A0DD0FF2C0FD0002AD9
:100D600023D171427141002C0FD1002D0DD10020F3
:100D7000002E14D00DE0002E10D1FF2C15D1002D27
:100D80000CD1002A03D171427141002908D183425C
:100D900010D00221581E0840013800E00220F0BDAA
:100DA0000028FCD101204042F9E7002CEFD1002DB2
:100DB000EDD1EEE7A24205DCF2DBAE4202D8EFD382
:100DC0000020ECE7414241414842022108400138FD
:100DD000E5E7C0469020F8B501224021C00500F0AB
:100DE000B3FE012000F072FC9020002280219025AB
:100DF000C00500F0A9FEED054021280000F09EFE90
:100E0000041EF9D1902718250126FF053200802104
:100E1000380000F099FE300000F058FC00228021DC
:100E2000380000F091FE4021380000F087FE0138C4
:100E3000434258416400013D2418EDB2300000F0F7
:100E400045FC002DE2D1902001228021C00500F058
:100E50007BFE012000F03AFC90202A008021C00592
:100E600000F072FE802000046040F8BD10B5FFF76E
:100E7000B1FF014B186010BDB400002010B5FFF7A2
:100E8000A9FF084B1860084B1B68984209D9C01A83
:100E9000FFF708FE0549FFF7F7F9FFF7E3FD044BFD
:100EA000186010BDCC000020B400002000005543A5
:100EB000B000002010B5FFF7D9FFFA20800000F045
:100EC000E7FCFFF7D3FF10BD10B5044B11201968E4
:100ED000034B196002F0C8F910BDC046B0000020F5
:100EE000AC0000200B4B0C4A1B68126810B59B1A13
:100EF000DA179B18094C5340092B04DDFFF7E4FF78
:100F00000023236010BD236801332360C72BF9DD64
:100F1000F4E7C046B0000020AC000020A80000208C
:100F2000F0B58BB01422002105A802F096FC8020B9
:100F3000304B000359699027014359615A69FF05F5
:100F4000024080200192019A5969C003014359610E
:100F50005A69294D024080200292029A5969800202
:100F60000143596180215A69C90202400392039AE0
:100F70005A6938000A435A615B6900220B400493A6
:100F80008021049B00F0E0FDF0212800002289016F
:100F900000F0DAFD802101222800C90100F0D4FD13
:100FA00000244023380005A90126059306940794E0
:100FB00000F012FD8023380005A9059306960794DA
:100FC000089600F009FDF0239B01059303232800F8
:100FD00005A908930696079400F0FEFC80232800DC
:100FE000DB0105A9059306960794089400F0F4FC2C
:100FF0000BB0F0BD001002400004004810B5154BC6
:10100000154C01222360154B200063600023E26031
:10101000A36023616361A361E361236200F0E8FEE2
:10102000002801D000F046F90021200001F014F959
:10103000002801D000F03EF90021200001F032F933
:10104000002801D000F036F9054A064B11680B4321
:10105000136010BD00540040D000002009020020A1
:10106000000001400001AAAA10B5040088B01422B3
:10107000002103A802F0F1FB124B22689A421FD113
:101080008021114CC902626910480A436261636998
:1010900003220B400193019BC0230393AE3B0493B7
:1010A00003A9113B05930692079300F095FC80215C
:1010B000E26989030A43E261E3690B400293029B00
:1010C00008B010BD00540040001002400004004869
:1010D00070B5102494B01C22002109A802F0BDFBB9
:1010E00022000021684602F0B8FB2200002104A87B
:1010F00002F0B3FBA022022600230125920308A8D8
:1011000008960B950C94109611931292139301F07C
:10111000EDF8002801D072B6FEE707230290039095
:10112000290068460093019601F012FB002801D0C7
:1011300072B6FEE7212304A804930695079401F0F4
:101140009BFB002801D072B6FEE714B070BD000012
:1011500070B5002400239EB02E22210002AD05A808
:10116000009301930294AC80049402F076FB2E224B
:10117000210012A8119402F070FB00F067FBFFF74A
:10118000A7FFFFF7CDFEFFF739FF00F0B7FA00F039
:1011900071FA02F02DF93D4B1A68202311680B43B8
:1011A000136000F0C9F800F0E7F800F0CCF8FFF7A2
:1011B00081FE00F067F900F06FF9A0425AD10E23CA
:1011C0000100334A00F030F900F0BDF8012113208E
:1011D00002F028F8642402F0B9F8280000F064F95D
:1011E000002851D16946280001AA00F097F900288B
:1011F00045D10198FFF730F806000098FFF72CF86A
:1012000033000200234904A802F030FB142000F050
:101210003FFB0199009800F0BBF9200000F038FB7B
:10122000FFF72CFE200000F033FB1B4B1B491A6814
:1012300011A802F01BFB11A904A802F037FB04A8B7
:10124000FEF762FF0021C3B204AA080000F0ECF828
:10125000FFF748FE124B00221B78002B00D1012221
:1012600080211048C90100F06FFCFA20400000F016
:101270000FFBB0E71023210020000B4AA2E70B4927
:1012800004A802F020FBC1E70949F9E76401002046
:10129000A8410008C6410008B00000201242000822
:1012A0000000002000040048B6410008E7410008A3
:1012B000F741000872B6FEE77FB5802600240125BD
:1012C0007600074B00221B19009378210123054863
:1012D00002960195013400F005FF1B2CF1D17FBD72
:1012E00001000020D00000207FB5172280236A442F
:1012F0005B0010700293FF3B009278210022019363
:10130000024800F0EFFE07B000BDC046D00000204C
:101310007FB5172280236A445B0010700293FF3B65
:101320000092782140220193024800F0DBFE07B0D2
:1013300000BDC046D000002010B5C82000F0A8FABB
:10134000FFF7BAFF10BD70B5B02480262000FFF76C
:10135000CBFF0020FFF7C8FF1020FFF7C5FF3500C7
:10136000013D0020EDB2FFF7D3FF002DF8D101348D
:10137000E4B2B82CEAD170BD10B58D20FFF7B4FFF0
:101380001420FFF7B1FFAF20FFF7AEFF10BD5039BB
:1013900010B50400C8B2FFF7A7FF102023091843B7
:1013A000FFF7A2FF0F202040FFF79EFF10BD0000B7
:1013B000203AF8B5D5B242B206000C00002A02DA93
:1013C00000260234E4B221003000102B1AD100278D
:1013D000FFF7DDFF124B2D01ED18E85D0137FFF738
:1013E00097FF082FF9D10134E1B23000FFF7CFFFAA
:1013F00000242B000833185D0134FFF789FF082C07
:10140000F7D1F8BDFFF7C3FF062200245543054A74
:10141000AD18285D0134FFF77BFF062CF9D1F0E70A
:101420004A44000822420008F7B504000D001F00DE
:1014300000260192019B9A5D002A00D1F7BD200091
:1014400008343B002900E4B2FFF7B2FF782C02D940
:1014500000240235EDB20136F6B2EBE71FB56A465D
:10146000030A1373054B50738821009303AA0223C8
:10147000034800F013FD05B000BDC046FFFF0000AB
:10148000D000002010B50348FFF7E8FF142000F05B
:10149000FFF910BDA230000010B50248FFF7DEFFD3
:1014A00010BDC0462022000013B50400E020000259
:1014B000FFF7D4FF044B2200009389210623034841
:1014C00000F07EFD16BDC046FFFF0000D0000020EA
:1014D00070B508233125020000784840440046B228
:1014E00028006040C0B2002E13DA013BDBB2002BB3
:1014F000F4D15178082348403121420044B2080019
:101500005040C0B2002C06DA013BDBB2002BF4D114
:1015100070BDE0B2E9E7D0B2F6E70000F8B504002C
:101520000E00FF211500FFF7D3FFA37801278342A8
:1015300024D1FF21E01CFFF7CBFF637983421DD14B
:10154000237860781B021843FFF7F2FA0C49FEF784
:101550009BFE0C49FEF7A4FF0B49FFF7BBF8306078
:10156000E37820791B021843FFF7E2FA0449FEF7FB
:101570008BFE0649FEF794FF002728603800F8BD6F
:1015800000FF7F4700002F43000034420000C842A4
:1015900070B50D4C0D1C2378002B0CD1FEF75CFEB2
:1015A0000100652001F060FE281CFEF755FE0100D9
:1015B000662001F059FE207814210130C0B2FEF7F8
:1015C00045FE217070BDC046B800002001200A4BC6
:1015D00082B099690143996180219A694905024065
:1015E0000092009ADA690A43DA61DB690B400193E1
:1015F000019B02B07047C04600100240FEE7FEE7C4
:101600007047704710B500F031F910BD10B50648AD
:1016100001F090FA054BDA69920603D5988CC0B2B6
:1016200001F074FE10BDC046640100200038014086
:101630000B4A0C490300891A0B4A10B510680028A0
:1016400001D10A4810601068C3188B4206D902F015
:10165000D1F80C2303600120404210BD1360FCE769
:101660000004000000200020BC00002078020020C0
:10167000704700000848094B10B503602F234360F2
:101680000023074A8360C260836101F003FA0028E7
:1016900001D0FFF70FFE10BD1C010020001000401C
:1016A000FFFF0000074B026882B09A4208D1102069
:1016B000054AD1690143D161D36903400193019B7C
:1016C00002B07047001000400010024070B50A4D93
:1016D0000400280001F056F900222B6801205A620C
:1016E000042C01D9023CA0B25A6A9042FCD82800CE
:1016F00001F072F970BDC0461C0100200B480C4B74
:1017000010B5036096239B010C22436000234261C5
:101710008360C36003618361C3610362436201F05C
:10172000FBFC002801D0FFF7C5FD10BD64010020BF
:101730000038014030B5040089B01422002103A80C
:1017400002F08BF8184B22689A422AD18020174B5E
:10175000C001996900250143996180219A69890234
:1017600002400192019A5A6990200A435A615B69CA
:1017700001240B400293029BC023DB00039302234E
:1017800003A90493C005013306930595079400F05F
:1017900023F91B202A00210000F08CF81B2000F008
:1017A000B3F809B030BDC046003801400010024017
:1017B0000D4885460D480E490E4A002302E0D458D4
:1017C000C4500433C4188C42F9D30B4A0B4C002389
:1017D00001E013600432A242FBD3FFF749FF02F09D
:1017E0000FF8FFF7B5FCFEE7002000200000002006
:1017F0008C0000200C4B00088C0000207802002098
:10180000FEE7000070B50500FA200D4B8000197846
:10181000FEF796FC0B4B01001868FEF791FC00F0F8
:101820007FF804000120002C09D1032D07D80238CD
:101830002200290000F03EF82000034B1D6070BD1F
:10184000200000201C000020240000201023064A55
:1018500010B5116800200B431360FFF7D3FFFFF7AB
:10186000B5FE002010BDC04600200240034A044BD4
:1018700011681B785B1813607047C046E8010020B0
:1018800020000020014B18687047C046E801002086
:1018900070B50400FFF7F6FF0500631C02D0044B8F
:1018A0001B78E418FFF7EEFF401BA042FAD370BD8F
:1018B0002000002030B5FF2503242A000440E40066
:1018C000A24089012940D243A140C3B200280ADBCB
:1018D000C0240B4B80088000C018A40003591A4094
:1018E0001143015130BD0F200340083B05489B08C0
:1018F0009B001B18D86902401143D961F2E7C0462A
:1019000000E100E000ED00E0002805DB1F231840A7
:101910001E3B8340014A13607047C04600E100E06F
:101920008022431E5204012093420DD2C021074A57
:1019300007485360036A09061B021B0A0B43036234
:1019400000200723906013607047C04610E000E05D
:1019500000ED00E030B5851CEB7F441C022B05D068
:101960000423836300230120E37730BD0E21036845
:101970001A688A431A600122196891431960016C40
:10198000C36B1000884058600020EA77E077ECE7EE
:1019900070B5841CE37F022B04D004238363033BD4
:1019A000180070BD0E210368056C1A688A431A601E
:1019B00001221968914319601100A940C36B596055
:1019C000E27700248318DC77426B1300A242E7D051
:1019D00090472300E4E700000023F0B587B00A68D1
:1019E0001400DC4001D107B0F0BD012415009C407B
:1019F00025400295224200D191E010254A685E0000
:101A00000192AA430D3DB5409446013AED43012AA7
:101A10000FD8CA688768B2402F403A4301278260D6
:101A20004268A2431400019A12093A409A402243A4
:101A300042608A68C468B2402C402243C260624659
:101A4000022A0FD1DA08072492008218176A03923B
:101A50000F221C40A400A24097430A69A2401743EA
:101A6000039A1762032402681540019A2240B2408B
:101A700080241543019A6405056022424FD0012558
:101A80000F27284A94692C43946192699C082A4044
:101A900002351D40AD00AF400592059A224AA400D0
:101AA000A418A6680022BE439027FF05B8420CD0B8
:101AB0001E4F0132B84208D01D4F0132B84204D047
:101AC0001C4F0132B84200D00232AA403243A26019
:101AD000194A029C1668029D019FE4433543FF03A7
:101AE00001D43500254015605668029D019F35439D
:101AF000BF0301D43500254055609668029D019FC3
:101B00003543FF0201D4350025409560D568029E1B
:101B1000019F2E43BF0201D425402E00D660013321
:101B20005DE7C0460010024000000140000400488C
:101B300000080048000C004800040140006908400B
:101B4000411E8841C0B27047002A01D081617047B0
:101B50008162FCE703689A69920701D500229A62C4
:101B600001229969114202D199690A439A61704729
:101B700030B5039C1204006822431A43054B4568A4
:101B80008905640D890D1C43A5430A432A4342601D
:101B900030BDC046FF63FF03F8B5036816009A69BD
:101BA0000400102310000D00202718401A4218D1FD
:101BB000F8BD6A1C16D0FFF765FE801BA84201D84D
:101BC000002D0ED12022636C134363642300413344
:101BD0001A70220000234232403413700120237017
:101BE000E6E723689A693A42E3D010222000DA61DE
:101BF000DF61FFF7AFFF2268054953680B40536070
:101C00000423626C13436364230041331F70E0E7D5
:101C100000E800FEF8B504000D001600202704229D
:101C200023689B69134211D1320029002000FFF77D
:101C3000B3FF002819D123689A693A4217D00421CA
:101C40009A690A4204D0228D002A01D00020F8BDF2
:101C5000DF615A680E490A405A602200002341326F
:101C6000636417704034537023700120EFE7FFF76F
:101C700009FE801BA84201D8002DD0D12022636C20
:101C800013436364230041331A7040340023EBE7AD
:101C900000E800FEF8B504000D00160020272368B8
:101CA0009B693B4201D00020F8BD32002900200092
:101CB000FFF772FF002813D1FFF7E4FD801BA84255
:101CC00001D8002DEBD12022636C13436364230001
:101CD00041331A70220000234232403413702370C3
:101CE0000120E1E7F8B504000E0017001D0022688E
:101CF000936933409B1B59424B41BB4201D00020AA
:101D000017E06B1CF4D0FFF7BDFD069BC01AA8427C
:101D100001D8002DEBD12022636C012013436364B2
:101D2000230041331A7022000023423240341370E2
:101D30002370F8BDF8B504000D00160002272368D3
:101D40009B693B4201D00020F8BD320029002000F1
:101D5000FFF722FF002815D16B1CF0D0FFF792FD92
:101D6000801BA84201D8002DE9D12022636C1343C7
:101D70006364230041331A7022000023423240344E
:101D8000137023700120DFE7F7B514001E00DAB2EC
:101D9000164B050000938023089F5B04FFF7E8FEC5
:101DA00039002800099AFFF7C5FF002801D001205B
:101DB000FEBD2B68012E0DD1E4B29C62099B00226E
:101DC000009380213B002800FFF78CFF431E9841C1
:101DD000C0B2EDE7220A9A6239002800099AFFF79B
:101DE000A9FF0028E3D12B68E6E7C0460020008069
:101DF00070B504000120002C3FD0250041352B7820
:101E0000DAB2002B05D12300403320001A70FFF70F
:101E10002BF9242301212B702368E0681A68A66837
:101E20008A431A6061681A4A0A401A619968194A15
:101E300011409960012821D1802109023143996024
:101E40005868154901435960D96800200A40DA6092
:101E5000616922690A43A16909020A43DA60216AB9
:101E6000E2690A431A60012219680A431A602023B2
:101E700060642B7020634234207070BD842109029D
:101E8000314399600228DBD1802109015960D7E7ED
:101E9000FFFFFFF0FF7FFFFF00800002F0B587B07B
:101EA000059303004133049203931B7804000F0051
:101EB0000220202B14D1230040331A78012A0FD09E
:101EC00001261E70FFF7DEFC80210500009019231B
:101ED000320020000902FFF705FF002802D0012090
:101EE00007B0F0BD21232600039A42361370113B40
:101EF0003370049B60646362059B60636385628DDD
:101F00002D4BFF2A20D9FF222285009380235B04DA
:101F100039002000FFF72CFE638D2A0020000C9969
:101F2000002B19D1FFF7B6FE0028D8D12021236855
:101F3000224DD9615A682A405A6023004034413307
:101F4000197030702070CBE7628D92B22285D2B2C8
:101F5000009380239B04DBE7FFF7ECFE0028BED153
:101F6000636A22681978013391626362638D228DFE
:101F7000013B9BB26385013A638D92B22285002BAF
:101F8000CAD0002AC8D1802120000C9B0095FFF701
:101F9000A9FE0028A3D1638DFF2B06D9FF2323853B
:101FA0008023FF2200905B04B2E7628D92B222850B
:101FB000D2B20090CDE7C0460020008000E800FECD
:101FC000F0B587B0059303004133049203931B7867
:101FD00004000F000220202B14D1230040331A7874
:101FE000012A0FD001261E70FFF74CFC802105004E
:101FF00000901923320020000902FFF773FE002829
:1020000002D0012007B0F0BD22232600039A4236F9
:102010001370123B3370049B60646362059B6063C2
:102020006385628D2D4BFF2A20D9FF2222850093E4
:1020300080235B0439002000FFF79AFD638D2A009E
:1020400020000C99002B19D1FFF724FE0028D8D1CD
:1020500020212368224DD9615A682A405A60230002
:1020600040344133197030702070CBE7628D92B2EA
:102070002285D2B2009380239B04DBE7FFF7CAFDE1
:102080000028BED12368626A5B6A1370636A228D7E
:1020900001336362638D013A013B9BB26385638DBB
:1020A00092B22285002BC9D0002AC7D180212000FE
:1020B0000C9B0095FFF716FE0028A2D1638DFF2B25
:1020C00006D9FF2323858023FF2200905B04B1E71C
:1020D000628D92B22285D2B20090CCE700240080BB
:1020E00000E800FEF0B589B007930EAB069204CB72
:1020F00004001B88039204930300413305931B786B
:102100000F000220202B08D1002A02D0049B002BB4
:1021100005D180239B006364012009B0F0BD23003A
:10212000403302931B780220012BF6D00122029B40
:102130001A70FFF7A7FB80210090050019230122E8
:1021400020000902FFF7CEFD061EE5D12123059AE6
:10215000390013702300423305934023059A13700E
:10216000039B60646362049B60636385109B200033
:102170000093069A079B0195FFF706FE002802D000
:10218000029B1E70C8E7638DFF2B54D9FF2280236A
:1021900022855B040090390020008026FFF7E8FCD0
:1021A000B6042A0020001099FFF7C4FD0028B3D11F
:1021B000636A22681978013391626362638D228DAC
:1021C000013B9BB26385013A638D92B22285002B5D
:1021D00017D0002A15D180212000109B0095FFF711
:1021E00081FD002800D097E7638DFF2B2BD9FF23BB
:1021F00023858023FF2200905B0439002000FFF735
:10220000B7FC638D002BCCD12A0020001099FFF77A
:1022100041FD002800D07FE7202123680D4DD961C2
:102220005A682A405A60230041331970059B403494
:102230001870207071E78023628D9B0492B2228512
:10224000D2B20090A7E7628D330092B22285D2B25B
:102250000090D2E700E800FEF0B504004134227897
:1022600003000F000220D6B2202A18D11D004035ED
:102270002A78012A13D0242222701B68233A196875
:1022800007489143196019680140002019601968D6
:102290003943196019680A431A6026702870F0BD26
:1022A000FFEFFFFF0200F0B5413214780300E5B202
:1022B0000220202C17D11C0040342678012E12D089
:1022C000223010701B6823381E68074F86431E603B
:1022D0001E6809023E4031431960196808431860BE
:1022E000002015702070F0BDFFF0FFFFF0B5040076
:1022F00085B0002845D00368DB072FD423689B07EF
:1023000000D581E023681B0700D5BCE023685B078C
:1023100000D5DFE02368DB061AD562690423B54DDA
:10232000012A00D04AE1696B02270B436B636B6B98
:102330001A436A63FFF7A6FA06006B6B3B4200D1B3
:1023400035E1F8216A6BA3698A43DB0013436B63B1
:10235000236A002B00D059E100202AE00C21A54D72
:102360006A680A40042A06D06B680B40082B0AD121
:102370006B68DB0307D52B689B03BFD56368002B15
:10238000BCD1012015E06368012B14D180232A6899
:102390005B0213432B60FFF775FA80270600BF022C
:1023A0002B683B42AAD1FFF76DFA801B6428F7D94E
:1023B000032005B0F0BD002B16D12B688E4A802774
:1023C00013402B602B688D4ABF0213402B60FFF730
:1023D00059FA06002B683B4200D18FE7FFF752FA0B
:1023E000801B6428F6D9E3E7052B05D180232A68F2
:1023F000DB0213432B60C9E72B687F4A13402B6035
:102400002B687E4A1340C5E70C227A4D6B68134255
:1024100006D06B681340082B10D16B68DB030DD41A
:102420002B689B0702D5E368012BAAD1F8212A6803
:1024300023698A43DB0013432B6063E7E2680123CF
:10244000002A0FD02A68022713432B60FFF71AFADD
:1024500006002B683B42E9D1FFF714FA801B0228E3
:10246000F7D9A5E72A6802279A432A60FFF70AFAF4
:1024700006002B683B4200D144E7FFF703FA801BBC
:102480000228F6D994E7E26901235A4D002A10D0B8
:102490006A6A022713436B62FFF7F4F906006B6A5E
:1024A0003B4200D032E7FFF7EDF9801B0228F6D956
:1024B0007EE76A6A02279A436A62FFF7E3F9060039
:1024C0006B6A3B4200D121E7FFF7DCF9801B022851
:1024D000F6D96DE780220021464D5205EB69009147
:1024E000134208D1EB691343EB61EB69134003938B
:1024F000039B012300938027414E7F0033683B42BA
:1025000006D0A368012B13D12A6A13432B6230E053
:1025100033683B433360FFF7B5F9019033683B42C2
:10252000EFD1FFF7AFF9019BC01A6428F6D93FE756
:102530000122002B14D12B6A022793432B622B6AB2
:10254000033293432B62FFF79DF906002B6A3B424F
:1025500016D0FFF797F92B4B801B9842F6D927E747
:10256000052B16D1296A013B0B432B622B6A1A43B8
:102570002A62FFF787F9022706002B6A3B420FD039
:10258000009B012B00D0C5E6EB691F4A1340EB61AD
:10259000C0E62B6A934304222B622B6A9343B5E770
:1025A000FFF770F9174B801B9842E6D900E7FFF759
:1025B00069F9801B022800D8BFE6F9E6053203D18D
:1025C0006A6B9A436A63BCE66A6B02271343012273
:1025D0006B636B6B93436B63FFF754F906006B6B94
:1025E0003B4200D1B4E6FFF74DF9801B0228F6D933
:1025F000DEE6C04600100240FFFFFEFFFFFFFBFFCC
:102600000070004088130000FFFFFFEF0C20344AE9
:10261000516815000140082947D0324A022B32D1B7
:102620002B68802713402B60FFF72CF90600BF04AE
:102630002B683B4221D10F22EB6A80269343E26A4A
:10264000B6041343EB62616AA36A6A680B432649C6
:102650000A4013436B6080232A685B0413432B609A
:10266000FFF710F904002B68334200D074E6FFF73F
:1026700009F9001B0228F6D99AE6FFF703F9801B37
:102680000228D5D994E62B68802613402B60FFF7EB
:10269000F9F80400B6042B68334200D15CE6FFF77A
:1026A000F1F8001B0228F6D982E61800012B00D1B0
:1026B0007FE680215368606A4902D26A19408142EC
:1026C00000D05EE60F210A40E16A8A4200D058E657
:1026D000F02292031340A26A934200D13CE650E6F6
:1026E00000100240FFFFFFFEFFFFC2FF70B588B081
:1026F00010221249684604AD01F0A6F81022280005
:102700000F4901F0A1F80C220E4E73681A40082AF6
:1027100011D10F206A46990C0140545CF26A0240C4
:10272000A95CDB0305D50848FDF70AFD604308B046
:1027300070BD0648FAE70448F9E7C046524A000867
:10274000634A00080010024000127A0000093D00B0
:10275000F7B505000E00002801D10120FEBD0122C1
:10276000374C236813408B421CD329688B0722D433
:10277000CB072FD4012322681A40B24251D82B68CC
:10278000304C5B0754D4FFF7B1FF63682E4A1B0639
:102790001B0FD35CD8402D4B18600020FFF732F898
:1027A0000020DBE7236893430B4323602368134037
:1027B0008B42D2D1D9E7234A4B0704D5E023506896
:1027C000DB0003435360F02053688343A86803434E
:1027D0005360CDE71B4F6A683B68012A19D19B0300
:1027E000BBD503217B688B4313437B60FFF74AF81B
:1027F00001900C237A681A406B689B009A42B9D00A
:10280000FFF740F8019BC01A114B9842F1D9032001
:10281000A4E7022A02D19B01E3D49EE79B07E0D400
:102820009BE722689A43226022681A42A7D094E765
:102830006368084A1340EA6813436360A3E7C0462D
:1028400000200240001002403A4A00081C0000200C
:1028500088130000FFF8FFFF044B054A5B685B0527
:102860005B0FD35C034A1068D840704700100240E9
:102870004A4A00081C000020F0B50368050085B036
:10288000DB032AD580220021384C5205E3690091F0
:10289000134208D1E3691343E361E36913400393EF
:1028A000039B012300938027314E7F0033683B4216
:1028B00028D0226AC02311009B002E4E19401A42D4
:1028C00032D1236A1E406B681E43009B2662012B97
:1028D00003D1E369284A1340E3612A68D30706D588
:1028E000032022490B6B8343A86803430B6300203A
:1028F000930617D510211D4A136B8B43E9680B43D0
:1029000013630FE033683B433360FEF7BBFF019076
:1029100033683B42CDD1FEF7B5FF019BC01A642856
:10292000F6D9032005B0F0BD6A6813408B42C8D0C9
:102930008023226A206A11005B0203432362236A18
:102940000E483140034023622162D307B9D5FEF718
:1029500099FF07000222236A1342B2D1FEF792FFC9
:10296000074BC01B9842F5D9DBE7C0460010024078
:1029700000700040FFFCFFFFFFFFFFEFFFFFFEFFC7
:10298000881300000200030001203D3211788142CB
:1029900015D1022111701B680C4A934205D00C4AD4
:1029A000934202D00B4A93420AD107219A68002031
:1029B0000A40062A03D0012219680A431A607047A8
:1029C0001A68104318600020F9E7C046002C014047
:1029D00000040040004001400368084A196A11429F
:1029E00007D1196A064A114203D101211A688A43A4
:1029F0001A6001233D300370002070471111000060
:102A0000440400001C4A10B50368904202D01B4CDD
:102A1000A04208D17024A3434C68234390420ED0B7
:102A2000164CA0420BD0164CA04208D0154CA04228
:102A300005D0154CA04202D0144CA04203D1144C36
:102A40002340CC6823438024A3434C692343036081
:102A50008B68C3620B688362904208D0094B98422E
:102A600005D0094B984202D0084B984201D10B691E
:102A700003630123436110BD002C014000040040AA
:102A80000020004000400140004401400048014057
:102A9000FFFCFFFF70B504000120002C21D02500B1
:102AA0003D352B78DAB2002B05D123003C332000D2
:102AB0001A70FEF7F7FD02232B702068211DFFF727
:102AC000A1FF220001230020463213704534083A4A
:102AD000137053709370D37013715371937123708B
:102AE0002B7070BD03680B491A680A401A609A6817
:102AF0002331FF318A439A60026E8A4203D11A68F9
:102B00000F318A431A602023C3670023036643669C
:102B10007047C046DFFEFFFF70477047406A0023E2
:102B2000020010B55A321380083A1380FFF7F5FF00
:102B300010BD7047F8B503687B4DDA690400196869
:102B400098682A420BD12020024200D175E0014250
:102B500000D172E0636E2000002B64D164E0012696
:102B6000724D30400D40054367D0251D324205D0DF
:102B7000CF0503D51E62EF6F3E43EE670226324259
:102B800006D0002804D01E62EF6FB6193E43EE67F0
:102B90000426324206D0002804D01E62EF6F023EA7
:102BA0003E43EE670826324207D020270F403843C5
:102BB00003D01E62E86F0643EE67802000010242E8
:102BC00006D04E0104D518622023E86F0343EB675B
:102BD000EB6F002B28D020231A4206D0194204D0D4
:102BE000636E002B01D0200098472268EB6F4027CE
:102BF000966828223E40134020001E4319D0FFF75C
:102C000071FF23689A683A420FD09A68206FBA43DE
:102C10009A60002809D0464B4363FEF7B9FE0028AE
:102C200002D0206F436B9847F8BD2000FFF775FF77
:102C3000FAE7FFF772FFEE67F6E7276E012F5AD12A
:102C400010252A4257D0294255D01D629A6840214A
:102C5000100008400A4231D0206F0268526892B2D8
:102C6000002AE1D02600583631889142DCD95A2119
:102C70008C46A44461460A808269202A14D01A68CE
:102C80002C490A401A609A684231BA439A609A689D
:102C9000FF318A439A602022E267002222661A6886
:102CA000AA431A60FEF756FE23005A331B88318868
:102CB000C91A89B22000FFF73CFFB5E726005A3653
:102CC0003288318892B20029AED02100583109886B
:102CD000891A89B20029A7D01A68174E32401A60A3
:102CE0009A68BA439A602022E26720661A68606692
:102CF000AA431A60DEE78020024203D0014201D0DD
:102D0000A36E28E74020024200D18DE7014200D1A6
:102D10008AE71A6882431A602023A36700232000F1
:102D2000A366FFF7F9FE7FE70F080000200100040B
:102D30001D2B0008FFFEFFFFDFFEFFFF70B5040044
:102D40002569A26801682A436569C3692A4308683E
:102D50003E4D1A43284002430A604A683C48256AAF
:102D60000240E06802434A60A26988682A43394DFC
:102D7000284002438A60384A914215D10321374ADC
:102D8000126B0A408021013A0902022A53D83448C2
:102D9000805C8B4214D008284BD8FDF7BDF90C4A53
:102DA000484A454A4A4A34002E4A914241D180223B
:102DB0001202934241D0FFF74FFD002841D024E09A
:102DC000082836D8FDF7A8F93935083505353535E1
:102DD0000900FFF78BFC32E0234B58006368616801
:102DE0005B08C018FDF7ACF9204982B2103A030421
:102DF0008A421ED80F221B03904380B222685B0FC9
:102E00001843D0601DE080200002636861685B08A1
:102E10001818FDF795F980B20200144B103A9A4247
:102E200007D82368D8600CE0FFF760FCC5E70E48C0
:102E3000EBE7012006E08B42BDD1FFF70DFD031E3D
:102E4000CBD1002000236366A36670BDF369FFFF4A
:102E5000FFCFFFFFFFF4FFFF0038014000100240EA
:102E6000744A00080044004000127A00EFFF00009E
:102E7000436A30B5DA0706D50168284C4A68224013
:102E8000846A22434A609A0706D50168244C4A683E
:102E90002240C46A22434A605A0706D50168214C81
:102EA0004A682240046B22434A601A0706D501682B
:102EB0001D4C4A682240446B22434A60DA0606D51C
:102EC00001681A4C8A682240846B22438A609A0601
:102ED00006D50168164C8A682240C46B22438A607A
:102EE0005A0610D50168134D4A68046C2A402243E3
:102EF0004A6080225203944205D14A680E4C224017
:102F0000446C22434A601B0606D502680B4953688D
:102F10000B40816C0B43536030BDC046FFFFFDFF8B
:102F2000FFFFFEFFFFFFFBFFFF7FFFFFFFEFFFFF46
:102F3000FFDFFFFFFFFFEFFFFFFF9FFFFFFFF7FF39
:102F4000F7B5802704000D00160001933F012268A9
:102F5000D3692B405B1B59424B41B34201D0002047
:102F60001CE0089B0133F3D0FEF78CFC019B089A10
:102F7000C01A2368904201D8002A10D11A68134958
:102F80000A401A609A68A331FF318A439A6020236D
:102F9000A367E3670023032074342370FEBD04217C
:102FA0001A680A42D3D0DA693A42D0D01F621A684E
:102FB00006490A401A609A68A331FF318A439A6031
:102FC0002023221DA367E367D367E3E75FFEFFFFCC
:102FD000F0B587B00593836F04000D001600022042
:102FE000202B51D1013800294ED0002A4CD080230B
:102FF000A2685B019A4204D12369002B01D10142EE
:1030000042D12300743303931B780220012B3BD061
:103010000123039A13700022231DDA672123A3677B
:10302000FEF730FC230050331E8002331E800493D1
:103030008023A268070000265B019A4204D123691D
:10304000B34201D12E001D000023039A1370230008
:1030500052331B889AB2002B0BD1059B4021009361
:1030600020003B00FFF76CFF00280CD12023A36752
:103070000AE0059B0022009380213B002000FFF71F
:103080005FFF002802D0032007B0F0BD2268002DAA
:103090000BD133880236DB05DB0D1385049B049AC4
:1030A0001B88013B9BB21380D1E72B780135138538
:1030B000F4E7000073B500260400031DDE67FEF789
:1030C000E1FB236805001B681B0716D423681B68F7
:1030D0005B070AD580210F4B0022009320002B00B4
:1030E000C903FFF72DFF002812D120230020A3677A
:1030F000E3672066743420700BE08021054B3200BA
:103100000093890303002000FFF71AFF0028DDD099
:10311000032076BDFFFFFF0110B5041E01D1012081
:1031200010BD836F002B04D1020074321370FEF7C0
:1031300001FB242301212268A367136820008B432D
:103140001360FFF7FBFD0128E9D0636A002B02D072
:103150002000FFF78DFE236807495A6820000A40C7
:1031600008215A609A688A439A60012219680A43C2
:103170001A60FFF79FFFD3E7FFF7FFFF031E03D09F
:1031800000201A5C002A00D170470130F9E710B521
:10319000002812D0002913D088420FD98C181300B0
:1031A000A0420BD8013B08D3CA5CC254FAE7CC5CFE
:1031B000C45401339CB2A242F9D810BD0023F9E7F0
:1031C0000800FAE7437802781B0213435BBA82785F
:1031D0009BB21B02C07813431B02184370470000C8
:1031E00070B50F4B0D001B781400012B15D001009A
:1031F000002000F093F9002100F090F9210A00F07E
:103200008DF9E1B200F08AF92200290000F08EF970
:1032100003210200072000F0A5F9012070BDC0467F
:103220006502002010B50F4B0C001B78012B16D047
:103230000100002000F072F9012100F06FF9002177
:1032400000F06CF9012100F069F9211E00D0012184
:1032500000F064F903210200072000F083F9012047
:1032600010BDC0466502002010B5134B0C001B7842
:10327000012B1FD00100002000F050F9022100F0C6
:103280004DF9002100F04AF9042100F047F9210E20
:1032900000F044F9210CC9B200F040F9210AC9B28A
:1032A00000F03CF9E1B200F039F9032102000720F7
:1032B00000F058F9012010BD6502002010B50E4B3A
:1032C0000C001B78012B14D00100002000F026F91F
:1032D000042100F023F9002100F020F9012100F081
:1032E0001DF9210000F01AF903210200072000F067
:1032F00039F9012010BDC0466502002000787047F2
:103300000078704710B5FFF75DFF10BD0B4B0C4AFE
:103310001B68116810B55C1A012C0DD08B4202D2CB
:10332000CB1A162B08D8074B994201D3064B1360D2
:103330001368591C1160187010BDC0462802002087
:103340000C0200202702002010020020F8B5264EB3
:1033500033881E2B04D933880024062B12D8F8BDDD
:1033600000F020FA0028F6D03488631C338000F087
:1033700027FA1E4B1855EAE71C4F631C395D552987
:103380000DD09CB23288121B062AF5DC92B2328034
:10339000002AE4D015482118FFF7F9FEDFE7F95CB1
:1033A000AA29EED1A31CF95C0029EAD1231DFD5CFA
:1033B000631DFB5C2D020733ED18ADB2262D02D93B
:1033C0000334A4B2DEE79542E0DC691E89B2E0195D
:1033D00000F0BAF82D196B1EFB5C9842F0D120006A
:1033E00000F0E6F8ACB2CDE7C0000020EC01002010
:1033F000054B064A1360064A13600022054B1A70FB
:10340000054BFF321A707047100200200C0200209A
:1034100028020020650200206302002007B56B46E9
:10342000D91DFA230870012202489B00FFF7D0FD46
:1034300007BDC0466401002070470000013810B588
:1034400000230C001100132813D8FCF765FE0A14A2
:103450001C12242C32381212121212121212123EA4
:10346000445821000120FFF7BBFE0138434243418D
:10347000DBB2180010BD2000FFF740FF0100022062
:10348000FFF7D0FEF1E72000FFF73CFF010003202B
:10349000FFF7EAFEE9E72000FFF732FF0100052011
:1034A000FFF70CFFE1E72000FFF728FF01000620EF
:1034B000E6E72000FFF722FF01000720E0E72000F9
:1034C000FFF71CFF01000820DAE72000FFF71AFFD2
:1034D00001001220DCE72000FFF710FF0B4B041E59
:1034E00009D10122187080210948C901FEF72CFB7F
:1034F00021001320C4E701221A700022F3E7200004
:10350000FFF7FCFE01001420BAE7C04600000020CF
:10351000000400481320704770470000024B195404
:10352000013080B27047C0463202002070B51500ED
:103530000400044B06306419C018FFF728FEA0B23F
:1035400070BDC0462C02002000230200180010B5F8
:103550009CB2A14200D810BDD45C01330019C0B2A6
:10356000F6E70000552370B50F4CD51D2370DB180E
:103570006370130AA170E0702371D3B20632200089
:1035800091B26371FFF7E0FFADB26B1EE054002D06
:1035900004D170BD2078FFF741FF0134013D034B9A
:1035A000ADB29D42F6D1F4E72C020020FFFF0000EF
:1035B000F0B56C4BC21C9A5C040089B0D0B20E2AE4
:1035C00016D8FCF7A9FD08196A6E777B7D15C21520
:1035D00015151515C500644901220878634B0028AC
:1035E00008D198710A70012203210020FFF7BAFF69
:1035F00009B0F0BD9A71F6E75D4C2000FFF7BEFD03
:1036000085B22A0021005B48FFF7C1FD5A4EFF2416
:103610003000FFF7B3FD82B2280031002040FFF7F1
:1036200085FF564E05003000FFF7A8FD82B2280046
:1036300031002040FFF77AFF514E05003000FFF7C0
:103640009DFD82B2280031002040FFF76FFF4D4EF4
:1036500005003000FFF792FD82B2280031002040C3
:10366000FFF764FF484E05003000FFF787FD82B288
:10367000280031002040FFF759FF444E050030007C
:10368000FFF77CFD82B2280031002040FFF74EFF9B
:103690000200032101202240A8E70022032102208A
:1036A000A4E7032106341B5D394ADBB2137008001E
:1036B00000229BE7374B01221A7099E7364BFAE755
:1036C0000026221D9A5C611D595C12020A43029277
:1036D000029B9E4200D38BE7A31D224A9B19991C93
:1036E000515CD5180902D75C0391D91C6B78515CE9
:1036F0000493AB7804310593EB7807910693FFF7B9
:1037000009FF264A00239446D9B20193884205D97D
:10371000624601335900515CB942F5D1019B5A0010
:103720001F4B9B185B78049A934208D1059B380085
:103730001A02069B291DD21892B2FFF77FFE079B43
:10374000F618039BF618B6B2C2E7FFF775FE4FE70F
:10375000A21D0734985C195DC0B2C9B2FFF7DCFE48
:1037600046E7C046EC010020C20000202C020020E9
:103770009D4A000832020020A44A0008B54A000809
:10378000BD4A0008C34A0008CA4A0008CC4A0008DB
:1037900063020020640200200B020020754A00082A
:1037A000774A0008044B1868044B1B68C01A431E74
:1037B0009841C0B27047C0460C0200202802002089
:1037C000084B09491A68096800208A4209D007494C
:1037D0008A4201D3064A1A601A68511C196010788F
:1037E000C0B27047280200200C02002027020020EF
:1037F00010020020014B18687047C04628000020C6
:1038000070B500260C4D0D4C641BA410A64209D1C6
:10381000002600F05DFC0A4D0A4C641BA410A64271
:1038200005D170BDB300EB5898470136EEE7B30001
:10383000EB5898470136F2E7044B0008044B0008A8
:10384000044B0008084B0008002310B59A4200D131
:1038500010BDCC5CC4540133F8E7030082189342D6
:1038600000D1704719700133F9E700000EB400B5BC
:103870000B499CB01DAB029006900791049109483A
:10388000094904CB0591006802A9019300F086F86C
:103890000023029A13701CB008BC03B01847C0463E
:1038A000FFFFFF7F280000200802FFFF020010B585
:1038B000137814000132002BFAD1CA5CE2540133B0
:1038C000002AFAD110BD03000A7801311A700133C1
:1038D000002AF9D170470000F0B58E6885B0070066
:1038E0000C00039201939E423CD890238A89DB000E
:1038F0001A4234D00325096923685B1A029363696D
:1039000002985D43EB0F5D19019B6D1001331B188D
:10391000AB4200D91D00530532D52900380000F014
:1039200027FB061E09D10C233B6040230120A289FE
:1039300040421343A38105B0F0BD029A2169FFF70D
:1039400083FFA389144A1A4080231343A381029B57
:103950002661F61826606561019EED1AA560019B3F
:103960009E4200D9019E32000399206800F0A3FA1C
:10397000A36800209B1BA36023689E192660DAE7DA
:103980002A00380000F052FB061EE0D13800216901
:1039900000F0A4FAC7E7C0467FFBFFFFF0B5A1B077
:1039A00003901D008B890F0016001B0611D50B69B3
:1039B000002B0ED1402100F0DBFA3860386100287E
:1039C00005D10C23039A0138136021B0F0BD4023C8
:1039D0007B61002308AC6361203363761033A376E8
:1039E000079535002B78002B01D0252B47D1AB1B39
:1039F0000593B5420CD0320039000398FFF76CFFF5
:103A0000431C00D1AEE06269059B94466344636148
:103A10002B78002B00D1A5E00122002352426260E6
:103A200004A9543252186E1C2360E360A360137023
:103A3000A36505223178544800F032FA751C00283D
:103A40001FD12268D30604D5532304A95B18202173
:103A50001970130704D5532304A95B182B2119707F
:103A600033782A2B16D0350000210A20E3682A7803
:103A70006E1C303A092A4ED9002911D117E00135C0
:103A8000B0E7414B2268C01A0123834013432E0044
:103A90002360CEE7079B191D1B680791002B01DBF4
:103AA0000B9304E05B42E3600223134323602B7813
:103AB0002E2B0AD16B782A2B35D1079B02351A1D84
:103AC0001B680792002B2BDB0993304E032230003A
:103AD000297800F0E5F9002806D04023801B8340B8
:103AE00022680135134323602978062228486E1C7A
:103AF000217600F0D5F900283CD0264B002B25D1AB
:103B00000722079B07339343083307936369049A9B
:103B10009B18636165E74343350001219B18A6E7C5
:103B200001235B42D0E700230A201A0001356360BD
:103B300029786E1C3039092903D9002BC5D0099288
:103B4000C3E74243350001235218F1E707AB009366
:103B50003A002100104B039800E000BF0490049B42
:103B60000133D3D1BB890D985B0600D42DE701202A
:103B700040422AE707AB00933A002100064B039826
:103B800000F07CF8EAE7C046CE4A0008D44A0008B4
:103B9000D84A000800000000D9380008F7B5150021
:103BA00001938A680B690C000090934200DA1300BD
:103BB00022002B6043321278002A01D001332B609F
:103BC00023689B0602D52B6802332B6022680623EC
:103BD00017001F401A4227D0230043331B785A1E78
:103BE00093412268920630D4220001990098089EE1
:103BF0004332B047431C25D0062320682A68E16879
:103C000000250340042B03D18D1AEB43DB171D4025
:103C1000A3682269934201DD9B1AED180027BD427B
:103C200020D1002010E00137E3682A689B1ABB42CC
:103C3000D2DD2200012301990098089E1932B04775
:103C4000431CF0D101204042FEBD3020E118433139
:103C5000087021005A1C45310978A21843320233FA
:103C60001170C1E72200012301990098089E1A32C1
:103C7000B047431CE6D00137D1E70000F0B58BB068
:103C800006920A0043320793059004920A7E0C00C4
:103C9000109B782A06D8622A08D8002A00D1C0E0F2
:103CA000582A52D026004236327022E01000633883
:103CB0001528F7D8FCF73AFA16001F00F6FFF6FFB2
:103CC000F6FFF6FF1F00F6FFF6FFF6FFF6FFA8006F
:103CD00036009A00F6FFF6FFB900F6FF3600F6FF51
:103CE000F6FF9E0026001A684236111D19601368FF
:103CF00033700123A7E0086819680A1D05060BD573
:103D00000D681A60002D03DA2D23049A6D4213709A
:103D1000614B0A27039332E00D681A604106F1D522
:103D20002DB2EFE70D681968081D18602E0601D541
:103D30000D6803E06D06FBD50D68ADB2564B0A2742
:103D400003936F2A17D1082715E045310A70524AAC
:103D500003921A68216820CA1A60080650D5CB075A
:103D600002D52023194321601027002D03D12023E1
:103D700022689A4322602300002243331A7063684A
:103D8000A360002B03DB0422216891432160002DF6
:103D900002D1049E002B0CD0049E28003900FCF7B1
:103DA00055FA039B013E5B5C33702B0005009F427C
:103DB000F3D9082F09D12368DB0706D56368226988
:103DC000934202DC3023013E3370049B9B1B236132
:103DD000079B210000930598069B09AAFFF7DEFECA
:103DE000431C35D1012040420BB0F0BD20220968B0
:103DF0000A4322602200782145321170274AA7E742
:103E00004806ACD5ADB2AAE71A680D68101D49691D
:103E1000186013682E0601D5196002E06D06FBD507
:103E200019800023049E2361D2E71A68111D1960CE
:103E3000166800213000626800F032F8002801D0D6
:103E4000801B6060636823610023049A1370BFE7DE
:103E50002369320006990598079DA847431CC1D0E5
:103E600023689B0715D4099BE0689842BCDA1800C8
:103E7000BAE72200012306990598079E1932B04738
:103E8000431CAFD00135E368099A9B1AAB42F0DCC2
:103E9000E9E70025F7E7C046DF4A0008F04A0008D6
:103EA000C9B28218904201D10020704703788B423A
:103EB000FBD00130F6E710B5884202D98B18984242
:103EC00003D3002307E08B5C8354013AFBD210BD7F
:103ED000CC5CC45401339A42FAD1F8E770B50500BE
:103EE000002910D00C1F2368002B00DAE4182800EA
:103EF00000F0D4F81D4A1368002B05D163601460EC
:103F0000280000F0D3F870BDA34208D921686018DA
:103F10008342F3D118685B6841182160EEE71A000C
:103F20005B68002B01D0A342F9D911685018A04258
:103F30000BD120680918501811608342E0D118682D
:103F40005B68411811605360DAE7A04202D90C2384
:103F50002B60D5E721686018834203D118685B683D
:103F60004118216063605460CAE7C046C400002065
:103F7000F8B50323CD1C9D43083506000C2D1FD238
:103F80000C25A9421ED8300000F088F825490A689F
:103F90001400002C1AD1244F3B68002B04D12100BF
:103FA000300000F069F838602900300000F064F853
:103FB000431C2BD10C233000336000F077F803E072
:103FC000002DDEDA0C2333600020F8BD23685B1B74
:103FD00019D40B2B03D92360E418256003E0636830
:103FE000A2420ED10B60300000F060F820000722E2
:103FF0000B30231D9043C21A9842E6D01B1AA350DF
:10400000E3E75360EFE722006468C2E70323C41CC0
:104010009C43A042E1D0211A300000F02DF8431C4F
:10402000DBD1C7E7C4000020C8000020F8B50700B6
:104030000D001600002905D11100FFF799FF0400BB
:104040002000F8BD002A03D1FFF748FF3400F7E74E
:1040500000F034F82C00B042F2D231003800FFF703
:1040600087FF041EECD029003200FFF7EDFB29008A
:104070003800FFF733FFE3E7002370B5064D040077
:1040800008002B60FDF7D4FA431C03D12B68002BEA
:1040900000D0236070BDC0466802002010B5024801
:1040A00000F014F810BDC0467002002010B50248A0
:1040B00000F00DF810BDC046700200200B1F1B68F9
:1040C000181F002B01DA0B58C01870477047704753
:1040D000F8B5C046F8BC08BC9E467047F8B5C04667
:0840E000F8BC08BC9E467047C5
:1040E80046040008D203000840030008FA0200084A
:1040F800400300080E04000840030008FA02000804
:10410800D2030008D20300080E040008FA020008CF
:104118000003000800030008000300081C0400084E
:10412800D2030008D203000840030008F602000882
:10413800400300080E04000840030008F6020008C7
:10414800D2030008D20300080E040008F602000893
:104158000003000800030008000300081804000812
:104168008205000820050008200500081E05000833
:1041780024050008240500084C0600081E05000850
:10418800240500084C060008240500081E05000840
:104198000206000802060008020600088606000853
:1041A800736874333020696E6974206F6B007368AC
:1041B80074333020696E6974206661696C007465B7
:1041C8006D7065726174757265203D2025642C20C0
:1041D80068756D6964697479203D2025642C0063D5
:1041E800726320636865636B206661696C2E007278
:1041F80065616420646174612066726F6D20736804
:10420800743330206661696C2E005765696768747D
:10421800203D2025336428672900000000000000A5
:104228000000002F000000000700070000147F14A2
:104238007F1400242A7F2A120062640813230036A0
:104248004955225000000503000000001C224100CF
:10425800000041221C000014083E08140008083E13
:104268000808000000A0600000080808080800000E
:1042780060600000002010080402003E5149453EDD
:104288000000427F400000426151494600214145FB
:104298004B31001814127F10002745454539003C62
:1042A8004A49493000017109050300364949493630
:1042B80000064949291E000036360000000056361F
:1042C8000000000814224100001414141414000003
:1042D8004122140800020151090600324959513E91
:1042E800007C1211127C007F49494936003E414149
:1042F8004122007F4141221C007F49494941007FFA
:1043080009090901003E4149497A007F0808087FE8
:104318000000417F4100002040413F01007F081418
:104328002241007F40404040007F020C027F007F16
:104338000408107F003E4141413E007F09090906FB
:10434800003E4151215E007F09192946004649492E
:1043580049310001017F0101003F4040403F001FFB
:104368002040201F003F4038403F0063140814637A
:1043780000070870080700615149454300007F4164
:10438800410000552A552A55000041417F0000048C
:1043980002010204004040404040000001020400C5
:1043A800002054545478007F48444438003844442A
:1043B800442000384444487F0038545454180008B6
:1043C8007E0901020018A4A4A47C007F08040478D4
:1043D8000000447D4000004080847D00007F10285C
:1043E80044000000417F4000007C04180478007CF1
:1043F8000804047800384444443800FC2424241871
:104408000018242418FC007C0804040800485454AC
:10441800542000043F444020003C4040207C001CC5
:104428002040201C003C4030403C004428102844D8
:10443800001CA0A0A07C004464544C441414141420
:10444800141400000000000000000000000000003C
:104458000000000000F800000000000000333000F9
:10446800000000100C06100C060000000000000000
:10447800000040C07840C0784000043F04043F0476
:104488000400007088FC08300000001820FF211E7E
:104498000000F008F000E018000000211C031E21B5
:1044A8001E0000F00888700000001E212324192730
:1044B800211010160E00000000000000000000008F
:1044C8000000000000E018040200000000071820A7
:1044D800400000020418E000000000402018070017
:1044E8000000404080F0804040000202010F0102BD
:1044F8000200000000F0000000000101011F01019E
:104508000100000000000000000080B07000000002
:10451800000000000000000000000001010101018E
:104528000101000000000000000000303000000021
:1045380000000000000080601804006018060100F8
:10454800000000E010080810E000000F1020201004
:104558000F00001010F8000000000020203F20206D
:104568000000007008080888700000302824222104
:1045780030000030088888483000001820202011BA
:104588000E000000C02010F8000000070424243F9B
:10459800240000F808888808080000192120201144
:1045A8000E0000E0108888180000000F112020116C
:1045B8000E0000380808C83808000000003F000056
:1045C80000000070880808887000001C2221212241
:1045D8001C0000E010080810E00000003122221141
:1045E8000F00000000C0C0000000000000303000D4
:1045F8000000000000800000000000008060000053
:10460800000000008040201008000001020408108B
:10461800200040404040404040000404040404049A
:104628000400000810204080000000201008040248
:104638000100007048080808F0000000003036014A
:104648000000C030C828E810E00007182724231409
:104658000B000000C038E0000000203C23020227C5
:10466800382008F8888888700000203F2020201112
:104678000E00C0300808080838000718202020104D
:10468800080008F808080810E000203F2020201043
:104698000F0008F88888E8081000203F2020232011
:1046A800180008F88888E8081000203F2000030058
:1046B8000000C03008080838000007182020221E13
:1046C800020008F808000008F808203F210101212D
:1046D8003F20000808F8080800000020203F20209C
:1046E800000000000808F8080800C08080807F00EB
:1046F800000008F888C028180800203F2001263844
:10470800200008F8080000000000203F202020209A
:10471800300008F8F800F8F80800203F003F003F94
:10472800200008F830C00008F808203F20000718CB
:104738003F00E01008080810E0000F1020202010AB
:104748000F0008F808080808F000203F21010101BF
:104758000000E01008080810E0000F182424385062
:104768004F0008F8888888887000203F2000030CD4
:1047780030200070880808083800003820212122DD
:104788001C00180808F8080818000000203F20003E
:10479800000008F808000008F808001F2020202062
:1047A8001F000878880000C83808000007380E0184
:1047B8000000F80800F80008F800033C0700073C70
:1047C8000300081868808068180820302C03032C20
:1047D80030200838C800C83808000000203F2000F2
:1047E800000010080808C8380800203826212020B2
:1047F8001800000000FE020202000000007F404096
:104808004000000C30C00000000000000001063825
:10481800C00000020202FE000000004040407F008D
:104828000000000004020202040000000000000072
:104838000000000000000000000080808080808070
:104848008080000202040000000000000000000058
:1048580000000000808080800000001924222222AD
:104868003F2008F8008080000000003F1120201140
:104878000E000000008080800000000E1120202023
:104888001100000000808088F800000E1120201020
:104898003F200000808080800000001F222222220A
:1048A8001300008080F0888888180020203F20208E
:1048B80000000000808080808000006B94949493B6
:1048C800600008F8008080800000203F2100002060
:1048D8003F2000809898000000000020203F202002
:1048E8000000000000809898000000C08080807F51
:1048F800000008F8000080808000203F24022D304E
:104908002000000808F8000000000020203F2020B8
:1049180000008080808080808000203F20003F2031
:10492800003F8080008080800000203F2100002020
:104938003F200000808080800000001F2020202071
:104948001F00808000808000000080FFA1202011CF
:104958000E000000008080808000000E112020A042
:10496800FF80808080008080800020203F21200000
:1049780001000000808080808000003324242424EB
:104988001900008080E0808000000000001F2020C7
:1049980000008080000000808000001F2020201080
:1049A8003F20808080000080808000010E30080653
:1049B800010080800080008080800F300C030C3064
:1049C8000F0000808000808080000020312E0E3192
:1049D8002000808080000080808080818E70180692
:1049E800010000808080808080000021302C2221FE
:1049F800300000000000807C020200000000003F40
:104A0800404000000000FF00000000000000FF0020
:104A180000000002027C800000000040403F0000CF
:104A2800000000060101020204040000000000006A
:104A38000000000000000000000001020304060757
:104A48000809000000000102030402030405060728
:104A580008090A0B0C0D0E0F1010000102030405C3
:104A6800060708090A0B0C0D0E0F100004080201B6
:104A78000002010302040405040601070108010AF3
:104A8800040B020C010D040F02110212021301148F
:104A980001650266027B2270223A220066756C76F6
:104AA80067656F69776B70653961777100222C22B1
:104AB80076223A2200312E302E3000222C226D220E
:104AC8003A0032007D00232D302B2000686C4C000A
:104AD80065666745464700303132333435363738F6
:104AE8003941424344454600303132333435363754
:0C4AF800383961626364656600000000EC
:044B0400E9000008BC
:044B0800C1000008E0
:104B0C0001AE001040B081FFA1A6A83FC8D300D5CC
:104B1C0080D805D9F1DA12D8308D14AF00127A0092
:104B2C0001000000040000002C0000200000000028
:104B3C000000000000000000000000000000000069
:104B4C000000000000000000000000000000000059
:104B5C000000000000000000000000000000000049
:104B6C000000000000000000000000000000000039
:104B7C000000000000000000000000000000000029
:0C4B8C000000000000000000000000001D
:04000005080017B127
:00000001FF
